:020000040000FA
:10000000000400203D1400004314000045140000CB
:10001000611400007D14000099140000000000002D
:10002000000000000000000000000000E3100000DD
:1000300000000000000000005D110000096E0500D6
:10004000050D00000000000000000000D10D0000C0
:10005000BD0F0000000000009D0D0000000000002A
:100060000000000000000000C1310100000000009D
:100070000000000000000000090C0000000000006B
:10008000FFFFFFFFFFFFFFFFFFFFFFFFFFFFFFFF80
:10009000FFFFFFFF12FFFFFFFFFFFFFFFFFFFFFF5D
:1000A00000F002F800F0A0FD0AA090E8000C8244E5
:1000B0008344AAF10107DA4501D100F095FDAFF2C2
:1000C000090EBAE80F0013F0010F18BFFB1A43F036
:1000D000010318473C0300005C0300000A444FF092
:1000E000000C10F8013B13F0070408BF10F8014B97
:1000F0001D1108BF10F8015B641E05D010F8016BDC
:10010000641E01F8016BF9D113F0080F1EBF10F83F
:10011000014BAD1C0C1B09D16D1E58BF01F801CB62
:10012000FAD505E014F8016B01F8016B6D1EF9D5E5
:100130009142D6D370470000103A24BF78C878C1E6
:10014000FAD8520724BF30C830C144BF04680C60DD
:1001500070470000084900FB01F0084909684FEAB0
:1001600090304FEA912100FB01F05FEA901001D03E
:10017000401EFDD8704700006EA30100C00700209C
:1001800070B5049CA14D286142EA81159F4EB5616E
:100190003546EB61EC60012535620025356200BF14
:1001A0009A4DED6A15F0010FFAD170BD38B50446CD
:1001B000002534B1012C08D0022C12D0032C23D1FD
:1001C0001BE000209149086421E09048006C38B998
:1001D0000020E02302461F210090A320FFF7D0FF5C
:1001E00015E00020E02302461F210090A320FFF726
:1001F000C7FF00208549086409E00120834908649D
:1002000088640020886402E06FF0250500BF00BF0D
:10021000284638BD30B17D49896841F008017B4AE4
:10022000916005E07949896821F00801774A916079
:1002300070477648406A00F00100704708B500201A
:10024000E023024607210090FF20FFF799FF08BD39
:1002500038B500246D48006D10F0010F01D0FFF794
:10026000EDFF0020C0230246072100900520FFF784
:1002700087FF00BFFFF7DDFF0028FBD1634804685C
:100280000020C0230246072100903520FFF778FFA9
:1002900000BFFFF7CEFF0028FBD15C48056844EAA9
:1002A0000524204638BD10B5FFF7D2FF044614F0F0
:1002B000010F01D0002010BD0120FCE72DE9F8431B
:1002C00005460F4601F07AF85048006D10F0010F16
:1002D00001D0FFF7B3FF012F06D0022F06D0032F66
:1002E00006D0042F08D105E0AC7A0BE0EC7A09E0E7
:1002F0002C7B07E06C7B05E001F05EF86FF0F80006
:10030000BDE8F88300BF7F2C04D101F055F86FF0F1
:10031000F800F5E7FFF79CFF86B226F4C0764BF6AF
:100320008370064004F01F0046EA800614F0400F78
:1003300003D004F0200046EA4026344846604FF0DF
:1003400001080020E0230246072100900620FFF765
:1003500017FFA023002207210120CDF80080FFF71E
:100360000FFF0120FFF756FF00BFFFF79CFF00289B
:10037000FBD00020FFF74EFF0120FFF717FF01F031
:100380001BF80020BCE7F8B5064601F017F81F4837
:10039000006D10F0010F01D0FFF750FFFFF758FF7D
:1003A00084B224F4C0744BF683700440757A05F06F
:1003B0001F0044EA800415F0400F03D005F0200030
:1003C00044EA40241148446001270020E02302460B
:1003D000072100900620FFF7D3FEA023002207216B
:1003E00001200097FFF7CCFE0120FFF713FF00BFAD
:1003F000FFF759FF0028FBD00020FFF70BFF01207B
:10040000FFF7D4FE00F0D8FF0020F8BD00600040E8
:100410003828070000000020381F0000DC00000022
:10042000342C0700FCFF012004000000380100000C
:1004300010B503200246084B19684FF6FF03194018
:10044000064B0B4343EA0221034B196000BF07F040
:1004500081FD002010BD00000CED00E00000FA0559
:100460002DE9FE4F0027B946A248A3490844A349F5
:10047000086008460068C01DC008C0000860084643
:1004800000689F4908449D49086018219D4801F073
:1004900059FD9A4801689C48401A9C4908609C484C
:1004A000806800F01E00022805D09948806800F09E
:1004B0001E00042802D1DFF85CA20AE0944880689C
:1004C00000F01E00062802D140F2044A01E04FF07D
:1004D000000A4FF0000ABAF1000F7AD0DAE9010100
:1004E00044180CB900BF75E0DAF8008018F0030F6B
:1004F00004D028F0030828F003000444E01CC117CE
:1005000000EB917189108C00A8F11808C1461821E0
:10051000484601F017FDC9F808407C48006884424D
:1005200009D92246794801687BA038F095FF6FF021
:100530000600BDE8FE8F71480068404505D808EB0D
:10054000040018307049884205D383A038F084FF36
:100550006FF01500EDE708EB040018306A49884297
:100560000ED208EB040000F118071821384601F0FC
:10057000E9FC08EB040018306349081A1838B86021
:100580005E480068A8EB0000A0F1300424F00704E6
:100590005A4805681821284601F0D4FC204604EB8F
:1005A000D0714910A960A868284400F118061821E4
:1005B000304601F0C7FC204604EBD0714910B16011
:1005C00017B1B86801E004E0002020444F490860FA
:1005D00000BF00BFBAF1000F1FD1484805681821BD
:1005E000284601F0AFFC494800681821C1EB5000D3
:1005F000A86042480168A86818300E1818213046D3
:1006000001F0A0FC414800681821C1EB5000B06027
:100610003E48006830383D4908603FB93948466077
:10062000056068602E607560306008E0354847609E
:10063000056068602E60756037607E6038603348A2
:10064000006830498860032028730C20307307B19C
:100650003873B9F1000F02D0082089F80C0005F1B9
:100660001800A96801F06EFC06F11800B16801F0ED
:1006700069FC27B107F11800B96801F063FCB9F112
:10068000000F2FD04348C9F81000D9F8080000F136
:100690001804E01704EB90500294801201D03EA0A1
:1006A00000E03EA0A346E11704EB9151891207D068
:1006B000A04644464FEAE87108EB9151891200E0E8
:1006C000214609EB0403CDE9001099F80C0010F065
:1006D0000C0F01D032A000E033A001464A4634A0FE
:1006E00038F0BAFE074880683D4908603D49086017
:1006F00000201EE7381F00003824010008050020F4
:100700000000002028340020000002200C050020FA
:100710000050004004047C004D4D4D3A70726561FC
:100720006C6C6F63206661696C656421206E6F7408
:1007300020656E6F756768206D656D6F727928250D
:10074000642920746F206265207265717569726515
:1007500064282564290D0A004D4D4D3A707265617B
:100760006C6C6F63206661696C656421206D656DDA
:100770006F72792077696C6C206265206F76657284
:1007800077697274652064616E67696F75736C79DF
:100790000D0A0000DFBC21374B00000042000000C2
:1007A00068696768000000006C6F77200000000037
:1007B0004D4D4D3A707265616C6C6F6320257320EE
:1007C0006D656D6F7279205B3078253038582D2D2E
:1007D0003078253038585D20256425730D0A0000D7
:1007E000100500201405002010B500201449C1F8A0
:1007F0000C011448006820F4007012490860084693
:10080000006820F00100086000200AF097F801203D
:100810000AF094F80B48006820F4007000F50070AE
:10082000084908600846006820F00100401C086084
:1008300001200349C1F80C0103490860002010BDE4
:1008400008000A4200500040C8070020F8B50825FB
:1008500056F0C0FA00F0B8FC34A038F0FDFD17E007
:1008600039480068009000BF3749009809688842FD
:10087000FAD03548006800903448006800F0ACFCBD
:10088000314800680099401A0090009800B105E0D6
:100890002E48006840002D490860E1D100BF2B4878
:1008A0000068400829490860084604681EE0274897
:1008B000006820432549086023480068009000BF75
:1008C0002149009809688842FAD01F4800680090C2
:1008D0001E48006800F080FC1B48006800998842B0
:1008E00004D01A480068A043184908602800A5F100
:1008F000010502D060080400D9D1144800683221F3
:10090000B0FBF1F06421B0FBF1F201FB12060F48DD
:10091000006841F28831B0FBF1F70C4803683246B9
:1009200039460BA038F098FD0020F8BD00006C6936
:1009300062726174696E672064656C6179206C6FA6
:100940006F702E2E2E0D0A0058080020C0070020C0
:10095000000025642E2530326420426F676F4D49B8
:10096000505320286C706A3D2564290D0A00000050
:1009700010B519485BF0BDFB174814305BF0B9FBAC
:10098000154854305BF0B5FB1349083908464161FE
:100990000020C86108468162816610480068401CDA
:1009A0000E4908600C4808380D49086044F0B0FB57
:1009B00009480838006B0B490968884204D9064881
:1009C0000838006B0749086007480068401C064962
:1009D0000860002010BD0000DC0700206408002033
:1009E0004C080020680800208008002010B5002076
:1009F000064908604021064801F0A4FA4FF422613C
:100A0000044801F09FFA002010BD0000C41400202B
:100A100078420020A00A00200548C0680549086007
:100A20000348006820F00100014908600020704779
:100A3000000002403404002000000000E90700002C
:100A4000310400004D08000061040000710900003D
:100A5000ED090000190A00000000000068220700EC
:100A600006000000010000007D6D05006F220700F8
:100A700081220700AF2207000600000001000000ED
:100A8000416D0500B6220700D7220700FC220700AF
:100A90000300000001000000796603000023070046
:100AA0002A230700A0230700030000000200000023
:100AB000A1240200A4230700E2230700AC240700BE
:100AC0000400000001000000891A0200B1240700A0
:100AD000E824070098250700050000000100000039
:100AE0005D6F05009E250700D22507002F26070011
:100AF0000400000001000000A17D0300342607006F
:100B00006E2607001FB560460DF02AFA1FBD1FB5FF
:100B100060460DF07FFA84461FBD1FB560460DF09C
:100B2000D5FA84461FBD1FB560460DF015FB1FBDED
:100B30006E2901F0F883702900F0EE8566292AF00D
:100B400036A165292AF033A167292AF030A161294D
:100B50002AF02FA103681B0A28BF41F080016929F0
:100B600000F05C85642900F05985752900F05685F0
:100B70006F2901F0E984782900F0BA85E92901F0AC
:100B80008184E42901F07E84F52901F07B84EF293A
:100B900001F0E684F82900F0B9850368DB0928BF75
:100BA00041F08001632901F00284732901F0078478
:100BB000E32902F00982F32902F00E820020704737
:100BC0001FB500F09CFF01F01BFE04000020002177
:100BD00069F048FC401C60600020002169F058FC6E
:100BE000E0601FBD10B510BDDFF80CD0FFF7E8FFC7
:100BF00034F0E8FB02F09CFC0004002003B4FFF793
:100C0000F1FF03BCAFF3008010B50AF013F9142014
:100C10002AF09CFA40B932480068002804DD3048C8
:100C20000068401C2E4908602E48006819302D4984
:100C300008602D480068401C2B4908600AF03AFA09
:100C40002948006828284AD30020274908602748F7
:100C50000068401C25490860002059F0C1FF044687
:100C6000214608202AF086FE21480078C0B9214894
:100C70000078401C40B21F490870084690F90000F7
:100C80001E2822DD1C48007838B1084690F9000083
:100C90003C281ADD2BF0ECFF17E02BF0E9FF14E005
:100CA00016480068032810DB144800680C280CDC88
:100CB00013480078401C40B211490870084690F96A
:100CC0000000142801DD2BF0D3FF14F003F80128F5
:100CD00001D02BF0CDFF2CF087F84DF02BFE10BD8E
:100CE000400400202404002028040020E8050020FF
:100CF0009215002030040020B0070020F0140020DE
:100D0000310400202DE9F04700243CE004EB4401CD
:100D1000204A52F8210024F023FB0546002D00DA7A
:100D200030E005F01F01012000FA01F82E0E1F200F
:100D300000EB860000F0FF09484604F046FD074638
:100D400017EA080F1DD04146484604F013FD04EB96
:100D50004401104A52F821002AF0B6F804EB44008E
:100D60000C4B53F8201004EB440003EB8000426866
:100D70003046904704EB4401064A52F821002AF01D
:100D8000E5F800BF641C044800688442BEDBBDE88F
:100D9000F0870000A82D00203C04002010B50AF0C8
:100DA00011F80848006858B10748007818B9074892
:100DB00000682CF0F1FA0548006802490968884784
:100DC00010BD00008C04002090040020800400204E
:100DD00038B5002400210C2004F030F8044614F04B
:100DE000010F3ED02A480068B8B30AE029480088BD
:100DF000401C2849088008460088B0F5006F00DBD9
:100E00000DE024480088B0F5006F08DA2049096831
:100E1000204A1288881804F019F90128E6D000BF8A
:100E20001D480068002818DC0DF06EF948B9002054
:100E300003460246014600904FF4F55037F0B8FDE6
:100E400006E000231A4619464FF4F55037F07AFFB2
:100E500011480068401C1049086000210A2003F076
:100E6000EDFF14F01E0F11D014F0020F06D114F094
:100E7000040F03D114F0080F00D100BF002105209A
:100E800003F0DCFF00210A2003F0D8FF38BD00008A
:100E9000980400209C040020A004002008B52748E6
:100EA000806910F01E0F25D02548D0F8EC0218B14B
:100EB00024A038F0D1FA16E02148D0F8F00218B199
:100EC00027A038F0C9FA0EE01D48D0F8F40218B196
:100ED0002AA038F0C1FA06E01948D0F8F80210B19B
:100EE0002CA038F0B9FA01203049C1F8E0033049AC
:100EF000C1F87C021248D0F8E802C0B100BFEFF39D
:100F0000058048B90020034602460146009041F69C
:100F1000016037F04DFD06E000231A46194641F600
:100F2000016037F00FFF01202149C1F87402214808
:100F3000006810B101202049086008BD0060014030
:100F400018002C42467561727420525820657272E6
:100F50006F7220696E746572727570740D0A00008C
:100F60004675617274205258206572726F72206FDC
:100F700076657272756E0D0A00000000467561722A
:100F800074205258206572726F72205061726974B9
:100F9000790D0A004675617274205258206572728C
:100FA0006F72204672616D650D0A000020002C42B0
:100FB00014002C4200072C4288062C4208B52A480F
:100FC000D0F8E802E0B101202849C1F874020021FC
:100FD000082003F06DF800BFEFF3058048B900204A
:100FE00001230246014600904FF4F85037F0E0FC30
:100FF00006E00123002211464FF4F85037F0A2FE1C
:101000001B48806910F01E0F22D01748D0F8EC0260
:1010100010B118A038F020FA1348D0F8F00210B13F
:101020001BA038F019FA1048D0F8F40210B118A03B
:1010300038F012FA0C48D0F8F80210B114A038F0C9
:101040000BFA01201849C1F8E0030849C1F87C02F5
:101050001648006830B11648006818B101201349DD
:10106000091D086008BD000018002A4214002A4229
:1010700000500140427561727420525820657272AE
:101080006F7220696E746572727570740A00000068
:101090004275617274205258206572726F72206FAF
:1010A00076657272756E0A0020002A4284062A4212
:1010B00000072A4262B6704772B6704761B6704741
:1010C00071B67047401EFDD87047000062B6704789
:1010D00072B6704761B6704771B67047401EFDD852
:1010E00070472C4B19684868B0E8F00F80F3098806
:1010F0004FF0000080F311884EF00D0E7047000095
:1011000000000000044800F108000068006880F357
:10111000088862B600DF000000ED00E00FB54FF474
:1011200080604FF000010968A1EB000101F10101AD
:101130004FF0A50211F8013B401E03D99342F9D0AC
:1011400000F101000349086003494FF48060086022
:101150000FBD0000FC040020F8040020EFF309801C
:101160000C4B1A6820E9F00F506008B54FF02000D2
:1011700080F311885BF0ECFB4FF0000080F31188E6
:10118000BDE8084019684868B0E8F00F80F30988A6
:10119000704700004C08002062B6704772B6704776
:1011A00061B6704771B67047401EFDD870470000A9
:1011B00062B6704772B6704761B6704771B67047D5
:1011C000401EFDD87047000062B6704772B6704787
:1011D00061B6704771B67047401EFDD87047000079
:1011E00062B6704772B6704761B6704771B67047A5
:1011F000401EFDD87047A0E8F01F704762B67047E8
:1012000072B6704761B6704771B67047401EFDD820
:1012100070472DE9005050E800EFAEF1010E40E8B4
:1012200000EC9CF0000FF6D1BFF35F8F9EF0000F33
:1012300044BF84468847BFF35F8F00BFBDE800907E
:101240002DE9005050E800EFAEF1010E40E800EC4F
:101250009CF0000FF6D1BFF35F8F9EF0000F4ABFE6
:1012600084464FF0000C88476046BFF35F8F00BF95
:10127000BDE800902DE90050BFF35F8F00BF50E83C
:1012800000EF0EF1010E40E800EC9CF0000FF6D1EB
:10129000BFF35F8FBEF1000FDCBF84468847BDE817
:1012A00000902DE904504FF0807250E800EFAEEB53
:1012B000020E40E800EC9CF0000FF6D19EF0000F0B
:1012C0001CBF84468847BFF35F8F00BFBDE8049012
:1012D0002DE90450BFF35F8F00BF4FF0807250E8DC
:1012E00000EF964440E800EC9CF0000FF7D124BFDB
:1012F00084468847BDE80490FFF78BFF70472DE9CF
:101300000050BFF35F8F00BF50E800EF0EF1010EF9
:1013100040E800EC9CF0000FF6D19EF0000F04BFF7
:101320008C468847BDE8009062B6704772B6704739
:1013300061B6704771B67047401EFDD87047000017
:1013400062B6704772B6704761B6704771B6704743
:10135000401EFDD8704704B550E8002F40E8001249
:1013600092F0000FF8D14FF0000004BD0CB551E829
:10137000002F024441E8002393F0000FF7D11046FC
:101380000CBD0CB551E8002FA2EB000241E8002390
:1013900093F0000FF6D118460CBD0CB551E8002FA4
:1013A00022EA000241E8002393F0000FF6D10CBDC1
:1013B00062B6704772B6704761B6704771B67047D3
:1013C000401EFDD8704700000B49D1F800C04A68A4
:1013D0005CF8043B1068184442F8040B8C4528BFA5
:1013E000A1F1DC0C8A4228BFA1F1DC02C1F800C0E7
:1013F0004A6020F000407047DC420120DFF8B4D0A2
:10140000ADF5805D2C48A0F58060006801B40CF05B
:1014100081FE2A4C2A4DAC4209D294E80F0030B428
:1014200043F00103984730BC04F11004F3E7FFF7E1
:10143000C7FBDFF884D0234800470000004622485D
:101440000047FEE71EF0040F0CBFEFF30880EFF338
:1014500009802DE9F00FEFF3088128F0D6B9704725
:101460001EF0040F0CBFEFF30880EFF309802DE9A5
:10147000F00FEFF3088128F0C8B970471EF0040F91
:101480000CBFEFF30880EFF309802DE9F00FEFF3C5
:10149000088128F0BAB970471EF0040F0CBFEFF3B3
:1014A0000880EFF309802DE9F00FEFF3088128F0B1
:1014B000ACB97047FCFF01200004002010040000BC
:1014C00030040000C5530300FD13000010B50446AE
:1014D00000F0A2FE0068005D00F0010010BD0000F9
:1014E0007CB51D4616460C00009001D02044401EDD
:1014F000074B7B442A4669460190304600F02DFF99
:1015000005461CB10020694600F03AFF28467CBD24
:10151000950E00000FB41CB5084B06AA7B44694623
:101520000090059800F019FF04460020694600F07D
:1015300027FF20461CBC5DF814FB0000610E000074
:101540000FB47CB50C0009AA009001D02044401EC5
:10155000084B7B4469460190089800F0FEFE054662
:101560001CB10020694600F00BFF28467CBC5DF8EA
:1015700014FB0000350E000070B504468569006854
:10158000C10601D5302600E02026C00708D070BD76
:10159000D4E9012130469047206A00F10100206221
:1015A0006D1EF5D570BD70B5044685690078C0071D
:1015B00008D170BDD4E9012120209047206A00F1B4
:1015C000010020626D1EF5D570BD70B50C46054654
:1015D000012A05D02878800600D5EA69002302E0B8
:1015E000012305E05B1C934202D2E05C0028F9D1A4
:1015F000A869E618C01AA861286A18442862284613
:10160000FFF7BAFF04E0D5E9012114F8010B904778
:10161000B442F8D32846FFF7C6FF70BD2DE9F0416C
:101620000646002410687529314616A511D000F031
:101630000CFE002803DAC0F1000013A507E03168B2
:101640008A0701D511A502E0490704D510A5012498
:1016500001E000F003FE00210A2306F1240707E061
:10166000B0FBF3F203FB1200303078541046491CF3
:101670000028F5D123462A463046BDE8F04100F067
:10168000F6BD0000000000002D0000002B0000004F
:1016900020000000F0B40D460188090502D5234C56
:1016A0007C4402E0214C7C440E34002100F12406ED
:1016B0000BE002F00F074FEA1212E75D42EA0372F5
:1016C0004FEA1313775401F1010152EA0307F0D1F5
:1016D00002780023120704D5702D06D009B1113409
:1016E00002232246F0BC00F0C2BD10340123F8E70B
:1016F00070B504460D462146106800F0AFFD024665
:1017000029462046BDE870400023C3E7D21D22F0E1
:101710000703D3E90023BDE70368126843F0200301
:1017200003600823C3610023B4E70000DF01070062
:101730002DE9F05F894604464FF0000ADFF878B1E2
:10174000FB44C0F820A02046E1688847002875D0F7
:10175000252806D0D4E901219047206A401C206248
:10176000F1E700265F462046E168884720280546C5
:1017700008DB312D06D207EB050010F8200C08B16C
:101780000643F0E7B00701D526F00406C4F81CA014
:101790000027C4F818A02A2D09D028460DF094F887
:1017A00038B304EB8708303DC8F8185019E059F8F1
:1017B000041B204604EB87029161E1688847012FF2
:1017C000054618D1E069002820DA26F020061DE041
:1017D000D8F8180000EB800005EB40003038C8F85E
:1017E00018002046E168884705460DF06DF800288E
:1017F000EED1012F0AD02E2D08D12046E16888476E
:101800007F1C0546022F46F02006C4DBA069002895
:1018100003DA404246F00106A061F00701D026F04D
:1018200010066C2D0BD0682D09D04C2D39D06A2DA7
:1018300035D0742D35D07A2D33D016E038E0E168FC
:101840002F4620468847B842054609D16C2F26D03E
:101850004FF48060E168064320468847054604E06F
:101860006C2F1AD04FF4807006430DB3A5F14100E0
:10187000192802D8203546F400664A4629462046F3
:1018800026604E46FFF754F980B101280BD0F61DB3
:1018900026F0070000F1080955E74020E4E7802022
:1018A000D8E70020D6E706F104094CE7284651E7BF
:1018B000206ABDE8F09F0000670107000FB400B583
:1018C0008DB010A9099000910B904FF0FF300A9055
:1018D00000200C90064878440690064878446A46F2
:1018E00007900F9909A800F059FE0DB05DF814FBA0
:1018F000E30C0000FB0C00002DE9FF5F1D464FF0DC
:10190000FF3B91464FF000085F46D5E90146A969C3
:1019100001987F1C8847296A824688470028F6D1AB
:101920001AF101000CD0002E24F4C06419DD600609
:1019300014D5BAF12B0F09D0BAF12D0F0ED103E057
:10194000584604B0BDE8F09F44F48064A96901984A
:101950007F1C8847761E8246002E02DDBAF1300FCA
:1019600003D0B9F1000F26D032E0A969761E0198A4
:101970007F1C44F400748847002E824605DDBAF1CE
:10198000780F06D0BAF1580F03D0B9F1000F10D07C
:101990001EE0B9F1000F02D0B9F1100F18D1A969FA
:1019A000761E01987F1C24F400748847824610201C
:1019B00002E0082000E00A20814609E0A96908FB4E
:1019C0000908761E01987F1C44F4007488478246FB
:1019D000002E05DD4946504600F0CCFD0028EDDA2A
:1019E000E96901988847A00502D46FF00100A8E7D3
:1019F000E00727D1600614D5600502D5C8F10000C4
:101A000000E04046296801F104022A6009682205C5
:101A100001D5087016E0220701D5088012E00860A1
:101A200010E0286800F1040129600068210502D552
:101A300080F8008006E0210702D5A0F8008001E0D0
:101A4000C0F8008038467CE770B5064600F0ECFB35
:101A50000468054630460A22002100F002F82C6096
:101A600070BD2DE9F04791460F468046044600269A
:101A700014F8015B2DB100F0CFFB0068405DC0079A
:101A8000F6D12B2D02D02D2D18D0641E4A46394692
:101A9000204600F0B3FD27B13968A14201D1C7F853
:101AA00000804FF0020471050BD54042002803DD91
:101AB00000F0BAFB0460A007BDE8F08746F480663A
:101AC000E4E70028F8DA00F0AFFB04606FF00040B4
:101AD000F2E700000B4910B5A1F17C020A4CC2E903
:101AE0003712372106E000EB104342F82130074B54
:101AF00000FB03400B1EA1F10101F4DC10BD01202D
:101B0000E8E700007C420120E119D666CD0D010016
:101B1000014A00F0C3BD0000341F0020401ECAB2BD
:101B200010F8011F8A4202D00029F9D10020704725
:101B300010B5431E13F8014F002CFBD105E011F83E
:101B4000014B002C03F8014B03D0521EF7D20021A9
:101B5000197010BD30B505460B462A4613F8014BE7
:101B600012F8010B08B1A042F8D01CB1002802D035
:101B70006D1CF1E7284630BD40EA010310B59B0714
:101B80000FD1042A0DD310C808C9121F9C42F8D0E7
:101B900020BA19BA884201D9012010BD4FF0FF3098
:101BA00010BD1AB1D30703D0521C07E0002010BDAE
:101BB00010F8013B11F8014B1B1B07D110F8013B3A
:101BC00011F8014B1B1B01D1921EF1D1184610BD1B
:101BD00040EA0103024630B59B0710D14FF00134B3
:101BE00000E008C208C91D1B9D4315EAC41FF8D0B8
:101BF00013F0FF0102F8011B0DD01B0AF8E711F8E2
:101C0000013B002B02F8013B05D011F8013B002BF2
:101C100002F8013BF3D130BD2DE9F0410546904675
:101C20000E460020044600E0641C44450BD2285DAB
:101C300000F0FEFA0746305D00F0FAFA381A02D1D9
:101C4000295D0029F0D1BDE8F0812DE9F0410E4673
:101C50000546002400E0641C285D00F0E9FA074610
:101C6000305D00F0E5FA381A02D1295D0029F2D181
:101C7000BDE8F08110B5431C02E010F8011B71B102
:101C80008107FAD14FF0013202C88C1A8C4314EA52
:101C9000C211F9D0C01A0A0603D0C01E10BDC01A66
:101CA00010BD0A0401D0801E10BD0902FCD0401EE8
:101CB00010BD40EA010370B59B072ED14FF00136ED
:101CC000042A2AD308C810C9121F9D1B9D4315EA78
:101CD000C61517D0D8B2E1B2401A50EA056110D14A
:101CE00098B2A1B2401A50EA05410AD123F07F40D0
:101CF00024F07F41401A50EA052102D1180EA0EBD2
:101D0000146070BDA342DBD018BA21BA884201D951
:101D1000012070BD4FF0FF3070BD0AB9002070BDCA
:101D200010F8013B11F8014B63B1A3420AD1521ED6
:101D300008D010F8013B11F8014B1BB1A34201D1AF
:101D4000521EEDD1181B70BD421E12F8013F002B30
:101D5000FBD111F8013B002B02F8013BF9D1704790
:101D6000032A40F2308010F0030C00F0158011F8C7
:101D7000013BBCF1020F624498BF11F801CB00F89F
:101D8000013B38BF11F8013BA2F1040298BF00F8F3
:101D900001CB38BF00F8013B11F0030300F06B806A
:101DA000083AC0F0088051F8043B083A51F804CBD7
:101DB000A0E80810F5E7121D5CBF51F8043B40F89D
:101DC000043BAFF30080D20724BF11F8013B11F8A8
:101DD00001CB48BF11F8012B24BF00F8013B00F8EC
:101DE00001CB48BF00F8012B7047431A28BF9A4225
:101DF0007FF6B6AF032A1044114440F2268010F05B
:101E0000030F1EBF11F8013D521E00F8013D10F0F6
:101E1000030F7FF4F6AF11F0030300F07484083A67
:101E2000C0F00B8051F8043D083A51F804CD40F859
:101E3000043D40F804CDFFF7F3BF121D5CBF51F81D
:101E4000043D40F8043DAFF30080D20724BF11F8F1
:101E5000013D11F801CD48BF11F8012C24BF00F855
:101E6000013D00F801CD48BF00F8012C704701B5D5
:101E7000FFF776FF01BD10B5203AC0F00B80B1E846
:101E80001850203AA0E81850B1E81850A0E81850AF
:101E9000BFF4F5AF5FEA027C24BFB1E81850A0E8B8
:101EA000185044BF18C918C0BDE810405FEA827CD2
:101EB00024BF51F8043B40F8043B08BF7047D207E9
:101EC00028BF31F8023B48BF11F8012B28BF20F88A
:101ED000023B48BF00F8012B704701F0FF03114699
:101EE00001B543EA032242EA024200F00BF801BDC9
:101EF00002F0FF0343EA032242EA024200F002B882
:101F00004FF000020429C0F0128010F0030C00F022
:101F10001B80CCF1040CBCF1020F18BF00F8012BA0
:101F2000A8BF20F8022BA1EB0C0100F00DB85FEA6E
:101F3000C17C24BF00F8012B00F8012B48BF00F83A
:101F4000012B70474FF0000200B5134694469646A9
:101F5000203922BFA0E80C50A0E80C50B1F12001BC
:101F6000BFF4F7AF090728BFA0E80C5048BF0CC06A
:101F70005DF804EB890028BF40F8042B08BF7047C8
:101F800048BF20F8022B11F0804F18BF00F8012B3A
:101F9000704710B5044610F0030F08BF11F0030F8F
:101FA00040F015804FF0013E121FC0F20E8051F834
:101FB000043BA3EB0E0C2CEA030C1CEACE1C08BF5E
:101FC00040F8043BF0D0A1F1040102F10402521EDA
:101FD00008DB11F8013B002B00F8013BF7D111465B
:101FE000FFF78EFF204610BD4FF0013C50F8042B48
:101FF00051F8043B9A4221D1A2EB0C03934313EA1C
:10200000CC1317D150F8042B51F8043B9A4215D148
:10201000A2EB0C03934313EACC130BD150F8042B1F
:1020200051F8043B9A4209D1A2EB0C03934313EA03
:10203000CC13DBD04FF00000704700BFD01A01BABC
:10204000B1FA81F101F0180122FA01F0CB40C1F19F
:102050002001DBB2C0B2C01A2CFA01F3D11A9143AD
:1020600011EAC311E6D17047014900F077BB0000C7
:10207000E442012030B503681C1404EB21459BB2F7
:1020800089B2194495FBF2F402FB145301EB0341AE
:1020900091FBF2F302FB131101E05B1E11440029D6
:1020A000FBDB016003EB044030BD2DE9F047044643
:1020B0004FF0FF3A86B00068029060680390A06815
:1020C0000490E0680190206900906569B5F1804F47
:1020D0007EDCB5F1404F7BDB3C22002102A8FFF7FC
:1020E000C9FF3C22014603A8FFF7C4FF182201469E
:1020F00004A8FFF7BFFF411E40F2B55201A8FFF749
:10210000B9FF0C22064668460021FFF7B3FF00EB3B
:10211000860028443E4D00267D440FE09A1A491C53
:10212000CDE90012022902D00C2907D104E0810771
:1021300004D0521C019201E0401C00960099019BC2
:102140006A5C9A42EADD012906D11C2B04D1810781
:1021500002D00221CDE90016A0F146018B2940D220
:102160000199009B00220F4602E0AE5C521C3144F4
:102170009A42FADB012B02DD820700D0491E40F2B1
:10218000B55540F26D16C21700EB927292106A4379
:1021900000F0030505FB062285070A4400D1521E04
:1021A000049D02EB4206DDF80C80A94605EBC6054E
:1021B000184EC5EB0515DDF808C008EB850535445C
:1021C0002E14ADB2C6EB0616C5EB0515B60000E041
:1021D00007E00CEB850506EB154666F31F45360C4C
:1021E00003D0504606B0BDE8F0877F1CC4E9043038
:1021F000521C072092FBF0F304F1180600FB132099
:10220000A6E803042846C4E90297C4E900C8E9E740
:10221000A8F70600A039CEFD10B500F0F1FA001DB8
:1022200010BD00BF418206000048704710430120E6
:1022300010B50446FFF7F0FF0068005DC00602D548
:1022400004F1200010BD204610BD09684A0501D5E3
:1022500040B27047C905FCD500B2704709684A050D
:1022600001D5C0B27047C905FCD580B270472DE9D1
:10227000F0470D4699469246044600F1240801684D
:10228000880604D5E06921F01001216000E00120FA
:10229000A84202DDA0EB050700E00027A16907EBDB
:1022A000050202EB0900A1EB0000A0612078C00646
:1022B00002D42046FFF760F9002608E0D4E90121A6
:1022C0001AF806009047206A401C761C20624E4592
:1022D000F4DB2078C0060AD52046FFF74DF906E06A
:1022E000D4E9012130209047206A401C2062381E2A
:1022F000A7F10107F4DC07E0D4E9012118F8050093
:102300009047206A401C2062281EA5F10105F3DCDD
:102310002046FFF748F92078000602D50220BDE8E4
:10232000F0870120FBE711680268006A530501D5B8
:1023300008700BE0D30501D5088007E0130603D52C
:10234000C217C1E9000201E052060860012070478F
:1023500001694A1C02610878704700B58FB0CDE969
:1023600001310021059105497944CDE90310114659
:102370006846FFF7DDF90FB000BD0000E5FFFFFF85
:102380000A6802F8010B0A607047D1E900239A42FB
:1023900002D2531C0B601070704710B5436913B123
:1023A000AFF3008001E0FFF710F9012010BD1278B3
:1023B00000F124010A7000224A700122EDE7116841
:1023C0004FF0FF32E9E700002DE9FF5F15468A462E
:1023D0000446DFF8AC80F8440027D8E900103E46F8
:1023E000CDE9001011E03AF816106A4602A800F094
:1023F000AFFF411C07D02178890603D5E26939185F
:1024000091420ED8074406F101062078800602D5D5
:10241000E069B84205DDAE42E5DB3AF81600002877
:10242000E1D1A069C01BA0612046FFF7A5F8D8E95B
:102430000010CDE90010002016E03AF818106A46A6
:1024400002A800F085FF8146401C0BD000250DF14D
:10245000080B05E0D4E901211BF8050090476D1C2D
:102460004D45F7D308F10100B0428046E5DB206A14
:10247000384420622046FFF796F8BDE8FF9F000031
:10248000E2F406002DE9F0418046D21D22F0070259
:102490000025D2E90002F52914A612D0002A06DA96
:1024A0000023D0EB030063EB020211A608E0D8F88A
:1024B00000108B0701D50FA602E0490701D50EA633
:1024C00001251146002408F1240704E000F09CF9DE
:1024D00030323A55641C50EA0102F7D12B4632469D
:1024E00021464046BDE8F041FFF7C1BE00000000B4
:1024F0002D0000002B0000002000000030B400215F
:1025000000F124040CE002F0070505F130054FEA64
:10251000D20242EA4372655401F101014FEAD3034A
:1025200052EA0305EFD10468002310A2250708D55D
:1025300004F020040C4304D0C46901230CA2641EDF
:10254000C46130BCFFF793BE10B504462146106845
:10255000FFF784FE02462046BDE810400023CDE789
:10256000D21D22F00701D1E90023C7E700000000D7
:10257000300000003A2800D2303820F02002412AF2
:1025800001D3A2F13700884201D34FF0FF307047EA
:10259000026811441378016018467047D1600549FC
:1025A0007944516104497944116200211161114655
:1025B00000F016BDEDFFFFFF23EFFFFF426842B1C1
:1025C000016811F8013B23B1521EC0E90012184600
:1025D00070470121C160881E704742685AB1C368C4
:1025E000016843B983688B4205D0491E521CC0E97B
:1025F0000012002070474FF0FF3070472DE9F05F68
:10260000824615468B4600270AF10104B946007838
:10261000302801D09DB113E014F8010B0127782870
:1026200003D0582801D045B10AE00DB1102D07D1D3
:10263000002714F8010B102502E0082500E00A2508
:102640000026B0460EE005FB080005FB06F1012759
:102650001FFA80F801EB1046B6F5803F00D3B9466B
:1026600014F8010B2946FFF785FF0028EBDABBF1D0
:10267000000F05D00FB1641E00E05446CBF80040B7
:10268000B9F1000F06D0FFF7CFFD02210160C81E8F
:10269000BDE8F09F48EA0640FAE700002DE9F04166
:1026A00015460E46040002D12C6804B90BA420463E
:1026B00000F07EFE0444207870B12746314638464B
:1026C00000F066FE0444207810B1002004F8010BED
:1026D00038462C60BDE8F0810027F9E700000000D3
:1026E000431A28BF9A427FF6C6AB104410F0030F7E
:1026F00011441EBF11F8013D521E00F8013D10F0BB
:10270000030F7FF4F6AF103AC0F00A8010B531E93C
:102710001850103A20E91850BFF4F9AFBDE8104046
:10272000530724BF31E9081020E9081044BF51F8CD
:10273000043D40F8043D12F0030F08BF7047D20774
:1027400028BF31F8023D48BF11F8012C28BF20F8FE
:10275000023D48BF00F8012C7047000070B50C46E0
:10276000016800204A1C34D040F2B5553C23B1FB2F
:10277000F3F203FB12112160B2FBF3F103FB112210
:1027800018236260B1FBF3F203FB1211A16046F261
:10279000E0310A440721B2FBF1F301FB1321B2FB44
:1027A000F5F305FB1322A1619900B2F5B77F06D3BB
:1027B000521EAD10B2FBF5F3194405FB13220F4B6B
:1027C000E261616189077B440CD03B2A0AD3521C29
:1027D00008E02C212046FFF7B5FB0120E0600AE06D
:1027E000521A401C195C9142FAD9521CC4E90320C8
:1027F0004FF0FF302062204670BD0000FAF0060066
:10280000004870473043012030B5B0F10A024FEA6A
:10281000900E71F100034EEA817EB0EB0E0061EB89
:1028200091014FEA101E4EEA017E10EB0E0041EBC3
:1028300011114FEA102E4EEA016E10EB0E0041EB23
:1028400011214FEA104E4EEA014E10EB0E0041EB03
:102850001141401841F100014FEAD00040EA4170B7
:102860004FEAD10110EB80054FEA810444EA9074ED
:1028700044EB01046D1944EB0404521BA3414FF0D7
:10288000000348BF0A3200D530BD401C41F10001B1
:1028900030BD70472DE9FF4F0C461E464FF0FF3705
:1028A0008BB0D2E90001DDF860800A908A46C1F35E
:1028B0000A5505B93D46002108464FF00000BAF11F
:1028C000000F00F4400005DA00EB80004FF44001F7
:1028D00001EA50004FEA9059B9F1010F00DDB94605
:1028E0000A9850EA4A000ED044F61050A5F2FF357F
:1028F00045432F14B8F1000F1ED07542291E1EDD6E
:10290000C9F100021CE0B8F1010F4FF0000001D046
:10291000302103E0F24305E02154401CB042FBDBD0
:1029200030460022002121540B99C1F80880C1E9EA
:1029300000200FB0BDE8F08FBD1B6D1CDEE74A46DE
:1029400000DA694206A800F081FD06AB07CB03ABB5
:1029500007C350460A9900F0F1FD8DE80700A0F585
:1029600000501F3800900398002D09DD42F21F012E
:102970004A46084403A90390684601F050F808E06D
:10298000A0F500504A461F3803A90390684601F09D
:102990005AF88DE807000004000C03D04FF0FF3018
:1029A000410800E01046B8F1000F03D00022009269
:1029B00015461FE0751E06D4FFF726FF02F1300210
:1029C00062556D1EF8D5B3460122084302D000229D
:1029D0007F1C04E02078302801D100227F1E002ACD
:1029E000099787D01DE0112D07DAFFF70DFF303270
:1029F00062556D1C50EA0102F5D108430FD1002148
:102A0000681E05E0235C625C6354491C2254401E2E
:102A10008142F7DBAB46A81B401E099001E00098FD
:102A200048B1002004F80B000B98099AC0F8088000
:102A3000C0E9002B7DE711264FF000085AE72DE989
:102A4000F04F88460446D21D22F0070191B0D1E92B
:102A50000001CDE90A010AF059FE02460B98C00FA9
:102A600001D02D2007E02068810701D52B2002E04E
:102A7000202101EAC000032A099001D0072A05DBC2
:102A800003464146204600F0A1FC0FE12078800675
:102A900001D5E06900E00620B8F1650F814606D057
:102AA000B8F1660F18D0B8F1670F72D132E000208C
:102AB000B9F1110F009001DB112301E009F10103CD
:102AC0000AAA01A90CA8FFF7E5FEDDE90C700026B3
:102AD00009F10105834648E001204B4600904FF084
:102AE00000470AAA01A90CA8FFF7D4FEDDE90DB042
:102AF0000C995D46002618B909F1010001EB0005AB
:102B0000B9EB050003D4C0F1FF3609F10105A5EBCF
:102B100009002BE0B9F1010F01DA4FF001090020A3
:102B2000B9F1110F0090484601DD112300E0034682
:102B30000AAA01A90CA8FFF7ADFEDDE90C704D460D
:102B400000268346207800070AD4AB4500DA5D46AC
:102B500001A8012D04DD411911F8011C302907D00D
:102B60004F4502DA17F1040F04DA0120824610E023
:102B70006D1EEEE7002F02DCED1B3E4403E0781CE7
:102B8000A84200DD0546A7EB060000F1010A4FF060
:102B900000472078000703D4AA4501DB4FF0FF3A35
:102BA0000021B7F1004F0DF143088DF8431023D0F9
:102BB00002202B23002F01DA7F422D234FF00A0C35
:102BC000011EA0F1010000DC4FB197FBFCF10CFBF2
:102BD00011720F4602F1300208F8012DF0E7A8F15A
:102BE000010003702188090501D5452100E0652118
:102BF000A0F1010800F8011C09980FA9A1EB080732
:102C000007F1070700B1012000EB050101EBEA70B5
:102C1000A1693844A1EB0000A0F10100A061207877
:102C2000C00602D42046FEF7A7FC099830B1D4E9CB
:102C300001219047206A00F1010020622078C0063F
:102C400020D52046FEF798FC1CE0002E04DBB3459F
:102C500002DD01A8805D00E03020D4E90121904729
:102C6000206A761C401CBAF1010A20620AD1FFF7E3
:102C7000C7FDC0680168405CD4E901219047206A23
:102C8000401C2062281EA5F10105DEDC07E0D4E926
:102C9000012118F8010B9047206A401C2062381E61
:102CA000A7F10107F3DC2046FEF77DFC022011B0FE
:102CB00040E600002DE9F04F04460D46D21D22F0FB
:102CC000070089B0D0E900924846174639460AF015
:102CD0001DFD0246F80F01D02D2307E02068810773
:102CE00001D52B2302E0202101EAC0038DF820301A
:102CF000D8B200B10120032A824601D0072A04DBA2
:102D00002946204600F062FB41E12078800601D48C
:102D10000D2500E0E569C7F30A560D2D4ADA0021BA
:102D20004FEA175B08464FF00000002F00F4400008
:102D300007DA00EB800000EBD0714FF4400000EAAE
:102D400061008115012901DD4FF0FF3100224FEABA
:102D5000850CBCF1180F06D31346ACF118004FF0E8
:102D60008052C24003E04FF4801323FA0CF30CF1BD
:102D70000C0CBCF1200F04D3ACF1200C09FA0CF0C0
:102D800001E007FA0CF000294FF0004801DD18B906
:102D900010E00FD140450DD319EB02095F4121B975
:102DA000404502D19F4329EA0209BBEB175F01D0DE
:102DB00006F101062088000502D57C48784402E02F
:102DC0007A487844193808AA302302F80A30037C7C
:102DD0000AF10101002E0AF1020A53546A4602DC8C
:102DE0004FF0300101E04FF031014FF001088DF854
:102DF000001002D0A6F2FF3603E059EA470100D0E6
:102E00006B4E002D02DC2178090704D54FF0020833
:102E10002E218DF80110C44600210BE0C7F30343B7
:102E20003F01C35C491C6D1E02F80830052908F1FA
:102E3000010801DA002DF1DC00210CE000EB197330
:102E4000491C1B786D1E082902F8083008F101089A
:102E50004FEA091901DA002DF0DC2178890602D544
:102E600014E0A8F10108E04505DD02EB080111F8C6
:102E7000011C3029F5D0B8F1000F07DD02EB080185
:102E800011F8011C2E2901D1A8F10108002D05DD42
:102E90003E2102F808106D1E08F10108407C002E4A
:102EA00002F8080008F1010806DA2D2002F80800EF
:102EB000764208F1010804E02B2002F8080008F12E
:102EC00001080A214FF47A739E420ADB96FBF3F065
:102ED00000F1300703FB106602F8087008F10108E2
:102EE00001E0642E0BDB642796FBF7F000F1300362
:102EF00007FB106602F8083008F1010801E00A2E0D
:102F000007DB96FBF1F000F1300002F8080008F151
:102F1000010896FBF1F001FB106000F1300002F8AF
:102F20000800A16908F1010808EB050202EB0A009C
:102F3000A1EB0000A0612078C00602D42046FEF775
:102F40001BFB216A08AE01EB0A00206204E0D4E911
:102F5000012116F8010B9047BAF1010AF7D2207847
:102F6000C00602D52046FEF707FB6E4609E016F8BC
:102F7000010B3E280FD0D4E901219047206A401C64
:102F80002062B8F10108F2D22046FEF70CFB09B02E
:102F90000220BDE8F08F206A2844206203E0D4E9D3
:102FA0000121302090476D1EEBD3F8E723EB06009C
:102FB00002FCFFFF10B5436913B1AFF3008001E0DD
:102FC000FFF702FA012010BD128800F1240182846B
:102FD0000022C2840122EDE711684FF0FF32E9E7D9
:102FE0002DE9F34F4FF0000A0C4656468DB00120F4
:102FF0000C9001F10C000B9062690B980121904735
:1030000005002DD0252D2CD0216A8847C0B16269DA
:103010000B9801219047216A88470028F7D16269FF
:10302000411E0B98904700E0761CA1690D988847D7
:10303000216A88470028F7D1E1690D988847DBE7C6
:10304000A1690D988847A842074601D1761CD3E7AD
:10305000E1690D9888477F1C02D1BAF1000F6FD04B
:103060006AE162690B9800273D46394690472A2855
:1030700004D162690B98012190470125DFF8CC82C9
:1030800062690B9801219047A0F130010A290AD208
:103090004745E5DC07EB870100EB4107303FDFD414
:1030A00045F01005ECE7E90601D46FF000476C2805
:1030B0000AD04C2814D0682815D06A280DD074285E
:1030C0001CD07A281AD01DE062690B980121904724
:1030D0006C2802D045F0040514E045F002050DE02F
:1030E00045F020050AE062690B98012190476828A5
:1030F00002D045F0080505E045F4006562690B98CB
:1031000001219047C4E9015765283DD019DC5828B2
:1031100079D00CDC452837D004DC252826D041287E
:103120009ED131E046282FD0472899D12CE05B284A
:103130007FD0612828D063287BD0642890D159E0C3
:10314000F5E06F2847D008DC66281DD067281BD023
:10315000692821D06E2816D127E0702844D0732822
:1031600067D0752846D078280DD14CE0A1690D981C
:103170008847252805463FF469AFE1690D988847DF
:103180006D1C3FF46AAFD7E00D9923466A466FF095
:103190000100AFF30080C4E045F0400023464FF04B
:1031A00000026060A80735D43DE0206800F104010A
:1031B00021600068290501D506701DE7290701D5A2
:1031C000068019E7A90704D54FEAE671C0E9006156
:1031D00012E7066010E745F0400023464FF0080272
:1031E0006060A80716D41EE040F60E0125EA010033
:1031F000606016E045F0400023464FF00A02606030
:10320000A80707D40FE045F040006060A80708D584
:10321000234610220D996FF00100AFF3008080E08B
:1032200007E0102223460D996FF00100FEF764FBC2
:1032300077E04FF0000963284F46C8464B46CB461F
:1032400002D05B2806D038E0E80601D40120A06057
:10325000012732E06269D4F80CB00B980121904745
:103260005E2807D14FF0010949466269D4F80CB0D5
:103270000B989047216939B900210B4603AA42F8FF
:103280002130491C0829FADBD8B3216949B308F178
:10329000010862690B98012190475D28F4D1B9F1CA
:1032A000000F09D0002003A951F82020D24341F893
:1032B0002020401C0828F7DB03AB20690028207978
:1032C0004FEA40701ED05B462246CDF80080CDE923
:1032D00001970D9900286FF0010020DAAFF300800C
:1032E0001FE0C11700EBD16203A9531122F01F02A6
:1032F00001EB8301821A0B680120904003430B60AD
:10330000C7E719E00D99224600286FF001000097E9
:1033100002DAAFF3008004E0AFF3008001E0AFF326
:10332000008000280ADA401C06D10C9820B14FF02A
:10333000FF300FB0BDE8F08F5046FAE7E90701D142
:103340000AF1010A064400200C9055E6CCCCCC0CC6
:1033500070B516460C460546FEF75EFF036893F807
:103360000101012806D0FF2C0FD8185D68B101209B
:103370002C7070BDD3F8070132462146034428461D
:10338000BDE8704003F2071318474FF0FF3070BDDF
:1033900030B503461D781DB10A4603E0AC4201D1A9
:1033A000181A30BD12F8014B002CF7D15B1CF1E765
:1033B00030B503461D783DB10A4612F8014B1CB1E9
:1033C000AC42FAD15B1CF5E7181A30BD2DE9F0418B
:1033D0001F46044603260168072A01F4006004DB47
:1033E00008B116A505E016A503E008B115A500E093
:1033F00015A521F010002060A069C01EA0610FB1CA
:10340000401EA0612046FEF7B7F84FB1D4E9012174
:1034100038469047206A401C2062C01C206206E0AB
:10342000206AFAE7D4E9012115F8010B9047761ECE
:10343000F8D22046FEF7B7F8BDE8F0814E414E00C5
:103440006E616E00494E4600696E66002DE9F047D8
:10345000814616468AB035487844D0E90023806812
:103460000092CDE90130314878440C38D0E902238C
:10347000006903924FF03702CDE9043041F69B30EA
:10348000014491FBF2F0A0F1800502FB10141B3CFB
:1034900002D56442012000E00020DFF890A08046C1
:1034A0000027FA44AAF1C60A0DE0E00709D0324627
:1034B000684607EB47010AEB810100F0C4FA8DE88A
:1034C000070064107F1C002CEFD1184F7F44B43FDD
:1034D00017E0E80713D007EB04100DF1180A90E885
:1034E0000E00AAE80E00C068F04201D198190890B9
:1034F000324606A903A800F0A6FA03AB07C36D1075
:10350000641C002DE5D132466946B8F1000F03A8CE
:1035100002D000F084FA01E000F095FAC9E9000158
:10352000C9F808200AB0BDE8F087000018E50600D9
:103530000446AFF300802046FDF760FB5FEA400CD5
:1035400008BF91F0000F4FEA8C234FEAC12243EAF3
:1035500051514FEA1C5018BF00F5F0404FEA3000BF
:1035600018BF41F000415FEA6C5C00F02980BCF1BB
:10357000FF3F08BF40F080407047130C06BF1204A5
:103580004FF0100C4FF0000C130E04BF12020CF1A0
:10359000080C130F04BF12010CF1040C930F04BFAD
:1035A00092000CF1020CD30F04BF52000CF1010C7D
:1035B00011464FF00002A0F11F00A0EB0C00704775
:1035C00011F0004F08BF704731F000413FF4D5AF14
:1035D0000B0C06BF09044FF0100C4FF0000C0B0E43
:1035E00004BF09020CF1080C0B0F04BF09010CF118
:1035F000040C8B0F04BF89000CF1020CCB0F04BF2D
:1036000049000CF1010CCCF12003A0EB0C0022FAD4
:1036100003F302FA0CF241EA030100F101007047E2
:1036200020F07F4C80EA030023F07F47ACEB0703D8
:1036300003F57C5300F0004003F1FF032DE98049BE
:103640004FEA154B09B44FEA144325EA0B4E24EA1E
:1036500003480FF2042606EB132749083E785FEA79
:10366000320203FB0667C7F5000707FB06F64FEAC1
:1036700054374FEAD64606F1020607FB066CCCF13A
:10368000005C4FEA1C472CEA074C07FB06F40CFBD6
:1036900006F504EB15464FEA961634BF00204FF0AE
:1036A00000404FEAD13706FB07FC4FEA1C4C0CFBED
:1036B0000BF7D21B03FB0CF761EB07010CFB0EF7BA
:1036C000B0EB074072EB17420CFB08F734BFA2EBDC
:1036D0000742B2EB074261EB17414FEA0C444FEA55
:1036E000910706FB07FC4FEA1C4C0CFB0BF7B0EBF9
:1036F000C74072EB573203FB0CF734BFA2EBC74253
:10370000B2EBC74261EB57310CFB0EF7B0EBC700D1
:1037100072EB57720CFB08F734BFA2EBC702B2EB97
:10372000C70261EB5771039F4FEA816141EA921131
:1037300004EBCC044FEAD1374FEA826206FB07FC68
:1037400042EA90124FEA80604FEA1C4C0CFB0BF7E8
:10375000D21B03FB0CF761EB07010CFB0EF7B0EB80
:10376000074072EB17420CFB08F734BFA2EB07428D
:10377000B2EB074261EB17414FEA8C554FEA9107D4
:1037800004EB9C2406FB07FC4FEA1C4C0CFB0BF7DC
:10379000B0EBC74072EB573203FB0CF734BFA2EB20
:1037A000C742B2EBC74261EB57310CFB0EF7B0EBEF
:1037B000C70072EB57720CFB08F734BFA2EBC702CD
:1037C000B2EBC70261EB577115EB4C254FEA8161F3
:1037D00041EA92114FEA82624FEAD13742EA9012EF
:1037E00006FB07FC44F100044FEA80604FEA1C4CE2
:1037F0000CFB0BF7D21B03FB0CF761EB07010CFB77
:103800000EF7B0EB074072EB17420CFB08F734BF22
:10381000A2EB0742B2EB074261EB174115EB1C1517
:103820004FEA813141EA92414FEA823242EA9042C4
:103830004FEA80304FEA0C7644F1000448EA034333
:103840004EEA0B484FF0000EB2EB080C71EB030789
:1038500024BF624639464EEB0E0E4FF0000B0018A7
:10386000524149414BEB0B0BB2EB080C71EB0307D8
:103870007BF1000B24BF624639464EEB0E0E4FF033
:10388000000B0018524149414BEB0B0BB2EB080CFB
:1038900071EB03077BF1000B24BF624639464EEB08
:1038A0000E0E51EA020718BF46F0010616EB0E761F
:1038B00055F1000254F1000103D5BDE88901BDE8CE
:1038C0000088BDE88901BDE80048B619524141EBC6
:1038D0000101A3F10103704780807F7E7D7C7B7AAC
:1038E0007978777676757473727171706F6E6E6DAC
:1038F0006C6C6B6A6A696868676666656464636352
:1039000062616160605F5F5E5E5D5D5C5C5B5B5AD7
:103910005A59595858575756565555555454535344
:1039200052525251515050504F4F4F4E4E4D4D4D9F
:103930004C4C4C4B4B4B4A4A4A49494948484847EA
:103940004747474646464545454444444443434328
:103950004342424242414141002B26D4770021D0CC
:103960001CB54FEA370703B44FF010004FF01001B9
:103970004FF000000FBCBDE810400BF1010BBBF194
:10398000010F08BF5FEA170722BF12F1010211F110
:1039900001014FF0004143F1000300F0004043EA11
:1039A00000007047F9D35708DAE746EA064613F1F4
:1039B000400F4FEA16461FDD13F1200FDFBF1643FD
:1039C0000A46002120335B42C8D0C3F1200746EAF3
:1039D000064602FA07F74FEA164646EA0706C3F11B
:1039E000200722FA03F201FA07F721FA03F14FF058
:1039F000000342EA0702B1E746EA020646EA064643
:103A00004FEA164646EA0106BCBF46EA0646360CB1
:103A10004FF000034FF000024FF000019EE72DE948
:103A2000C048934630B491E8380007C831EA400CEA
:103A300048BF34EA430C03D5FFF7F2FDFFF78CFFD4
:103A4000F0BCBDE800882DE9C048934630B491E849
:103A5000380007C810F0804F08BF13F0804F03D123
:103A600000F005F8FFF778FFF0BCBDE8008820F013
:103A70007F4780EA030023F07F4C07EB0C03A3F59C
:103A80007C5300F00040A3F1FE0392F0000F00F021
:103A9000B38095F0000F00F077802DE901494FEADF
:103AA00011404FEA144621EA004800FB06FC24EAD4
:103AB000064708FB06F607FB08F800FB07F718EBBC
:103AC00006484CEB164C4FEA124B18EB07484FEAEE
:103AD00015464CEB174022EA0B4E0BFB06FC25EA81
:103AE00006470EFB06F607FB0EFE0BFB07F71EEB69
:103AF000064E4CEB164C4FF000061EEB074E4CEBFF
:103B0000174B18EB0B0840F1000018EB0E0B58EBAD
:103B1000000840F100008F1A4FF000013CBFC9437C
:103B2000661B14BFB5EB040C00213CBFC943F61B58
:103B30004FEA17444EEA8E0E27EA04454FEA1C4727
:103B400004FB07622CEA074C05FB07F70CFB05F6A4
:103B500004FB0CFC16EB074642EB174216EB0C4637
:103B600042EB1C421BEB060658EB0202414146EABF
:103B70009E0601D5BDE80189B619524141EB01010C
:103B8000A3F10103BDE801894FEA14454FEA11474B
:103B900024EA054621EA074C05FB07F406FB07F774
:103BA0000CFB06F105FB0CFC11EB074144EB174441
:103BB0004FEA124711EB0C4144EB1C4422EA074C3C
:103BC00005FB07F206FB07F70CFB06F605FB0CFCF2
:103BD00016EB074642EB174216EB0C4642EB1C4530
:103BE0006A1854F1000148BF7047B619524141EBC1
:103BF0000101A3F10103704795F0000F37D04FEAA0
:103C000011424FEA144721EA024624EA074C02FB1C
:103C100007F106FB07F70CFB06F402FB0CFC14EBA8
:103C2000074441EB17414FEA154714EB0C4441EBB5
:103C30001C4125EA074C02FB07F506FB07F70CFBC6
:103C400006F602FB0CFC16EB074645EB174516EB98
:103C50000C4645EB1C42121951F1000148BF704758
:103C6000B619524141EB0101A3F1010370474FEA3C
:103C700014454FEA114724EA054621EA074C05FBA3
:103C800007F106FB07F70CFB06F24FF0000605FBF9
:103C90000CFC12EB074241EB174112EB0C4251EBCB
:103CA0001C4148BF7047921841EB0101A3F1010389
:103CB000704700002DE9F0471E46914688460446AD
:103CC00002F00F07DDF820A000F089F91F4D2C60ED
:103CD00016B16E6003F050FBBAF1000F01D0C5F8C9
:103CE00008A0002618E04146204600F078F92C6034
:103CF00003F0CCF8A9680020225C0B5C5A402254E7
:103D0000401CC0B223461028F6D3C5F8088008F13D
:103D1000100803F1100410364E45E4D3002F12D0E2
:103D20004146204600F05BF9E0190021C7F110027E
:103D300002E000BF00F8011B521EFBD22C60BDE860
:103D4000F04703F0A3B8BDE8F0870000EC150020B1
:103D50002DE9F04180460F4615461E46002D54D0F1
:103D60006889C82801DDC72400E06C89C82128487B
:103D7000FEF7C6F822462648696803F0D0FF2846B9
:103D80003FF078FA224908190422314603F0C7FFB0
:103D90001F492144081D022206A903F0C0FFC823C1
:103DA00022461B49082027F027FD80B2040001D1DC
:103DB000BDE8F081224617A11548FDF7DDFE20B9C8
:103DC0000D2C02D1306851F09DFD164890F900008D
:103DD0000F2809DB134890F90000122804DC214663
:103DE0000B4823F04FFCE3E70F48316801602146A0
:103DF00007480EF00BFC40B10C480760BDF81800F6
:103E00000B490880024831F023F800BFD0E70000DA
:103E1000183C0020736D6172746C696E6B66696E1C
:103E2000640000007007002060060020500600209B
:103E300056060020F0B50D490D4E00220C680021F9
:103E400002EB800504EB820301EB850C5F5C16F846
:103E50000CC087EA0C075F54491CC9B20429F3D38C
:103E6000521CD2B2042AEAD3F0BD0000EC150020A7
:103E7000BC4E002070B504460D460CB9204670BDFE
:103E80000DB92046FBE70021606928F07DFFA0689E
:103E900010B9A560256002E0A0680560A560A08952
:103EA000401CA081606928F068FF2046E7E7000019
:103EB00070B504460D4604F06DFB204820A1026851
:103EC000032002F0C9F91D480068C0B1E0001B4999
:103ED0000968B1FBF0F0401E1F494860E000174937
:103EE0000968B1FBF0F200FB1210C000E100B0FB6A
:103EF000F1F01949496841EA0040174948600F4804
:103F00000068C0B1E8000D490968B1FBF0F0401E3F
:103F100012494860E80009490968B1FBF0F200FB6A
:103F20001210C000E900B0FBF1F00C49496841EA09
:103F300000400A494860002070BD000014040020C1
:103F4000524334384D487A43616C69537973436CFA
:103F50006B3D25640A0000000060014000500140F4
:103F60007CB504460A480BF074FB054669460420FC
:103F700034F0F0F92146684633F0A6FE6946062083
:103F800034F0E8F9294602480BF07BFB7CBD0000C9
:103F9000D80800201CB50A480BF05BFB04466946B4
:103FA000042034F0D7F9684633F0AEFE69460620A7
:103FB00034F0D0F9214602480BF063FB1CBD000031
:103FC000D808002030B502460020002304E012F893
:103FD000014B60405C1CE3B28B42F8DB30BD002239
:103FE0008B5C8354521CD2B2102AF9D37047000064
:103FF000F0B504460020B4F5004F0DDAB1F5004FDE
:104000000ADCB2F5004F07DC8D18B5F5004F03DC74
:10401000994201DB012B02DA4FF0FF3034E01B4DF7
:104020002D6864F30E05194E3560194D2D6864F343
:104030000E05174E35604D1E164E366865F30E069A
:10404000144D2E605D1E144E366865F30E06124D3B
:104050002E600125114E35606618114D2D6866F3EE
:104060000E050F4E356066180E4D2D6866F30E0571
:104070000C4E3560551E0C4E366865F30E060A4D23
:104080002E600125094E3560F0BD000068500140EA
:1040900054500140585001405C500140000C2A42ED
:1040A000745001407C5001407850014000102A4279
:1040B0002DE9F04105460C4600271A2D71D2DFE8A4
:1040C00005F0ED0D1C3A3FED464C515969715F64A6
:1040D000767B82878E939A9ECFDEC1C67348006836
:1040E00080B2461C71480068C0F3024000EBC6066F
:1040F00001F074F8B0FBF6F7D3E001F06FF8E100DF
:10410000B0FBF1F0401E6949096860F30F01674890
:10411000016001F063F8E100B0FBF1F201FB120075
:10412000C000E100B0FBF1F16048006861F31240AB
:104130005E490860B5E05E48006800F00307B0E043
:104140005B48006864F3010059490860A9E004F085
:1041500001005849C1F86C02A3E004F0010056497F
:1041600008609EE004F001005249C1F87802C1F8ED
:10417000700296E004F001004F49091D086090E0CC
:104180004E48806900F01F078BE04C48806B00F0C0
:10419000030786E001204749C1F87402C1F87C0298
:1041A0007FE07BE0012044490831086079E0444821
:1041B0000068C0F30E0774E04148006864F30E0025
:1041C0003F4908606DE03F480068C0F30E0768E0B3
:1041D0003C48006864F30E003A49086061E03A48E0
:1041E0000068C0F30E075CE03748006864F30E0017
:1041F0003549086055E001203449086051E03448F1
:104200000068C0F30E0033490968C1F30E01401A7B
:1042100031490968C1F30E012E4A1268C2F30E0239
:10422000891A411A26480068C0F30E00401C014458
:1042300023480068C0F30E00401C91FBF0F200FB25
:1042400012172EE004F001002449886129E020487B
:1042500000682149096860F30E011F48016020E0F1
:1042600044B104F00300401E1D4908600120091FED
:10427000086003E000201A49091F086011E044B1FA
:1042800004F00300401E174908600120091F086060
:1042900003E000201349091F086002E04FF0FF37D8
:1042A00000BF00BF3846BDE8F08100000450014067
:1042B0001C50014014002A4280062A42005001404E
:1042C000585001405C5001407850014000102A4293
:1042D00064500140545001406850014000002A429F
:1042E000040A2A42040E2A422DE9F04104460D46F2
:1042F00016461F46B4F5167F0AD33448844207D8C1
:10430000052D05DB082D03DC022E01DC022F03DD69
:104310004FF0FF30BDE8F081681F2D49096860F358
:1043200001012B4801602EB101202A498860701ECE
:10433000C86004E001202749886000208860781E5A
:10434000244908610120486100F048FFE100B0FB0A
:10435000F1F0401E2049096860F30F011E4801601A
:1043600000F03CFFE100B0FBF1F201FB1200C000E5
:10437000E100B0FBF1F11848006861F31240164902
:1043800008601648006840F00800144908600120E1
:104390001049886104200121814042094FF0E02347
:1043A00003EB8202C2F8001100BF00200C49C1F8E3
:1043B00070020C4908600A49C1F878020120C1F86E
:1043C0006C020849091F08600020A3E7C0C62D0041
:1043D0000050014000002A4204500140009001407A
:1043E00014002A4284062A422DE9F74F82B0804603
:1043F0000F46002400F0F2FEC60000210120FFF766
:1044000057FEB6FBF0F000900FF058FB049900EB5C
:10441000010A00BF009801908AE064480068C0F378
:104420000E0563480068C0F30E0962480068C0F3D7
:104430000E00A9EB00005F490968C1F30E01691A7B
:10444000411A5D480068C0F30E00401C01445A4800
:104450000068C0F30E00401C91FBF0F200FB121646
:10446000002E62DD381BB04201D9304600E0381B17
:104470000646A9EB050000280CDC4E480068C0F396
:104480000E004D490968C1F30E010844401C401B51
:10449000B04207DB08EB0400324648492944FDF7E7
:1044A0005FFC23E043480068C0F30E0042490968FE
:1044B000C1F30E010844401CA0EB050B08EB0400FF
:1044C0005A463E492944FDF74BFCA6EB0B02394BFB
:1044D0001B68C3F30E03DFF8E4C003EB0C0104EB2D
:1044E0000B0303EB0800FDF73BFC00BFA8193149A3
:1044F0000968C1F30E01411A2F480068C0F30E008D
:10450000401C91FBF0F200FB12102A490968C1F32C
:104510000E01084485B22548006865F30E00234962
:10452000086034440098019002E00198401E019018
:10453000019810B1BC42FFF470AFA74200D128E04F
:104540000FF0BCFAB0EB0A001AD50FF0B7FAAAEBDD
:104550000000049001210820FFF7AAFD41F6FF703A
:10456000FFF7FEFC00BFEFF3058028B900210846E5
:10457000049A34F0F7F800E000BFFFF70BFD00E00D
:1045800000BFBC4205D20FF099FAB0EB0A003FF52C
:1045900041AF00BF01210820FFF78AFD24B94FF089
:1045A000FF3005B0BDE8F08F2046FAE768500140C3
:1045B0006450014054500140585001400080012097
:1045C0002DE9F0470546894600248E488069002879
:1045D0007BD08D480068C0F30E00B9FBF0F669E0AF
:1045E0008A48806B00B965E089480068C0F30E0A0C
:1045F00088480068C0F30E0787480068C0F30E00C3
:1046000050450FD1804B1B68C3F30E022919824B12
:104610001B68C3F30E03DFF804C203EB0C00FDF7C5
:104620009FFB24E07C480068C0F30E0076490968CF
:10463000C1F30E010844401CA0EB0A0829194246A8
:1046400076485044FDF78CFB6F4B1B68C3F30E0399
:10465000A3EB080204EB080359196F4B1B68C3F363
:104660000E03DFF8B8C103EB0C00FDF779FB6648D9
:104670000068C0F30E00384467490968C1F30E01B1
:10468000411A61480068C0F30E00401C91FBF0F233
:1046900000FB12116048006801445E48006861F345
:1046A0000E005C49086058480068C0F30E000444DE
:1046B000761E00BF002E93D153480068C0F30E0051
:1046C000B9FBF0F100FB119675E077E05048006807
:1046D000C0F30E0A4F480068C0F30E074A4800684E
:1046E000C0F30E004C490968C1F30E01AAEB0101A9
:1046F000084449490968C1F30E01791A411A424830
:104700000068C0F30E00401C91FBF0F200FB121891
:10471000B04500D24FE040480068C0F30E003A496F
:104720000968C1F30E010844401CB919884206D338
:104730002919324639483844FDF712FB20E0364843
:104740000068C0F30E0030490968C1F30E01084447
:10475000401CA0EB07082919424630483844FDF7B1
:10476000FFFAA6EB080204EB080359192A4B1B6851
:10477000C3F30E03DFF8A4C003EB0C00FDF7F0FA5F
:10478000B81925490968C1F30E01411A1E4800688D
:10479000C0F30E00401CB1FBF0F200FB12111E48EA
:1047A000006801441B48006861F30E001949086065
:1047B0003444002600BF002E88D11BE004E02046D0
:1047C000641C285C164908631648006808B94C4503
:1047D000F5D30120144908600AE004E02046641C77
:1047E000285C0F4908630F48006808B94C45F5D3A9
:1047F0004C45F2D301200C49083108602046BDE841
:10480000F087000000002A427850014084102A42BC
:10481000845001407C5001407450014000800120D0
:104820000050014004082A4280062A422DE9F04F38
:104830008DB006464FF0000800254FF4C0193446ED
:1048400006F1320A002328223146484620F084FB34
:1048500009F1280900BF00BF39E006F0FBFB05F5B0
:104860000070216A814202D2206A471B01E04FF4A6
:1048700000774FF400715046FDF742FB00233A46A3
:104880005146484620F068FB42463946504620F0E3
:1048900039FD804643461EA101A8626AFCF73AFE34
:1048A0002248006890F8840201280AD101A8FDF787
:1048B000E1F983464FF47A735A4601A9092028F09A
:1048C000F4FF3D44B944B5F5002F00DD05E0206A52
:1048D000A84202D9206A0028BFD100BF134800684F
:1048E00090F88402012806D14FF47A73022210A1B5
:1048F000092028F0DAFF606A404505D1206A18B126
:10490000206A0DB0BDE8F08F4FF0FF30F9E70000EE
:104910002020435243203A5B25645D2C2043616C88
:10492000633A205B25645D0D00000000A4040020B4
:104930000A0D00002DE9F74F82B004468A464FF475
:1049400080190025A846002600200190274600BFB8
:1049500006F080FB002338222146484620F0FCFA6E
:10496000002800DA1AE037A1381DFDF73DFB20B121
:1049700038A1381DFDF738FB38B94FF00108786AC7
:10498000CAF80000B96A04980160B86A064409F1DF
:1049900038096D1C386808B1642DD9DB00BFC5EB40
:1049A000C50006EBC006B8F1010F03D116B1B6F58C
:1049B000C22F03D9002005B0BDE8F08F00200546C6
:1049C00080464FF480191BE006F044FB05F50070AB
:1049D000B04202D9A6EB050801E04FF400780023AD
:1049E00042462146484620F0B7FA002800DA09E09E
:1049F00041462046019A20F085FC01904544C1447F
:104A0000B542E1D300BF002308222146484620F0EA
:104A1000A3FA04F1020BDBF80010019881420BD1DC
:104A20002078AA2808D16078882805D1A079AA28FA
:104A300002D1E079882802D04FF0FF30BBE7012097
:104A4000B9E700002F696E6465785F636E2E687445
:104A50006D6C00002F696E6465785F656E2E6874FA
:104A60006D6C00002DE9F05F04464FF4C01900257D
:104A700000270026AA46A04600BF06F0EBFA002356
:104A800038222146484620F067FA002800DA17E06D
:104A900033A108F10400FDF7A7FA28B134A108F109
:104AA0000400FDF7A1FA00B90127D8F82800064450
:104AB00009F138096D1CD8F8000008B1642DDCDB61
:104AC00000BFC5EBC50006EBC006012F03D116B130
:104AD000B6F5C22F02D90020BDE8F09F00200546A0
:104AE00007464FF4C0191AE006F0B4FA05F5007055
:104AF000B04201D9771B01E04FF4007700233A461A
:104B00002146484620F028FA002800DA09E05246FB
:104B10003946204620F0F6FB82463D44B944B54272
:104B2000E2D300BF002308222146484620F014FAB1
:104B300004F1020BDBF8000050450BD12078AA28C5
:104B400008D16078882805D1A079AA2802D1E07917
:104B5000882802D04FF0FF30BEE70120BCE70000FC
:104B60002F696E6465785F636E2E68746D6C0000EB
:104B70002F696E6465785F656E2E68746D6C0000D9
:104B800010B504461649D1F86C12D9B11449D1F8C0
:104B9000701259B11349496831B112490968491C69
:104BA000114AB2FBF1F01AE00F4818E00D494968CC
:104BB00031B10C490968491C0C4AB2FBF1F00EE016
:104BC0000A480CE000F02EF844B90649496831B1B2
:104BD00004490968491CB0FBF1F000E0044810BD2D
:104BE00014003E4200F0014000B4C40400D8B805EF
:104BF000006CDC0206498968C0F30B021143044AC9
:104C000091601146C96841EA1031D16070470000D7
:104C100000F00140024909690143014A11617047EE
:104C200000F001403EB502F03DFC0546012023495D
:104C3000C1F8E802284602F02DFC01202049C1F805
:104C400064034FF47A71684606F092F808E068460B
:104C500002F07EFB20B11BA034F0FEFB00203EBD25
:104C60001748D0F8E4030028F1D01A48446A01201C
:104C70001349C1F868034FF47A71684606F078F872
:104C800008E0684602F064FB20B10EA034F0E4FBBB
:104C90000020E4E70A48D0F8E4030028F1D10849ED
:104CA000C1F868030C48406810F01F0F01D1A00341
:104CB000D5E743F6095104FB01F0D0E71800444260
:104CC0001C003E4231532054696D656F7574210A92
:104CD0000000000000F001401820024038B51449DF
:104CE00088682FF007FA044618E014F0FF0F08D088
:104CF000E0B2FF2805D00E4908682FF0FBF9A0426A
:104D000000D10AE020462FF0F5F90090009800F05D
:104D10002DF808B9009838BD00BF641C0449C86864
:104D20002FF0E8F9A042E0D2002000900098F2E7CE
:104D30003056002070B5054600240CE0094901EB0F
:104D4000441006222946FCF717FF18B9054800EB66
:104D5000441070BD641C0448006AA042EED80020D4
:104D6000F7E70000645400203056002001B5002110
:104D70000BE0094800EB41100069009A904203D112
:104D8000054800EB411008BD491C0448006A8842F0
:104D9000EFD80020F7E700006454002030560020D0
:104DA00010B5A0210F48FDF7CDF81BF041F90E48D2
:104DB0000068B0B956F0DAFE0B4908600846006892
:104DC000007A40F02000096808724322074906482B
:104DD000006856F003FD002205490348006856F0BC
:104DE000DCFE10BD6454002038160020D0070700F8
:104DF00089AE000010B5202009F0A2F90248006831
:104E0000401C0149086010BDF404002010B504489E
:104E10000068401E0249086001D109F091F910BDF7
:104E2000F40400200149087070470000C108002008
:104E300010B50120FFF7A4FE10BD00002DE9F041E0
:104E400005460C4600270E2D7DD2DFE805F07C07D5
:104E5000163D42494E54595F7077656A3D48006877
:104E600080B2461C3B480068C0F3024000EBC60617
:104E7000FFF7DEFFB0FBF6F768E0B4F5966F02D3FC
:104E80003548844202D94FF0FF375FE0FFF7D0FF8B
:104E9000E100B0FBF1F0401E2E49096860F30F01FC
:104EA0002C480160FFF7C4FFE100B0FBF1F201FB09
:104EB0001200C000E100B0FBF1F12648006861F388
:104EC00012402449086041E02448006800F00307CC
:104ED0003CE02248006864F301002049086035E0A6
:104EE00001201F49C1F8E00330E004F001001D4932
:104EF000C1F86C022AE004F001001B49086025E0BB
:104F000004F001001749C1F870021FE004F001002D
:104F10001549091D086019E01448806900F01F0751
:104F200014E01248806B00F003070FE00BE0012053
:104F30000C49C1F87402C1F87C0207E001200A495B
:104F40000831086002E04FF0FF3700BF00BF38466D
:104F5000BDE8F08104600140C0C62D001C60014026
:104F600020002C4214002C4280062C42006001409C
:104F70002DE9F04104460E4615461F46701F2C4988
:104F8000096860F301012A4801602DB10120294917
:104F90008860681EC86004E00120264988600020FF
:104FA0008860781E2349086101204861FFF740FFAF
:104FB000E100B0FBF1F0401E1F49096860F30F01EA
:104FC0001D480160FFF734FFE100B0FBF1F201FB87
:104FD0001200C000E100B0FBF1F11748006861F376
:104FE0001240154908601548006820F00300134975
:104FF0000860012012490862C8631249C1F87002B2
:10500000C1F8780200201049086003200121814086
:1050100042094FF0E02303EB8202C2F8001100BF07
:1050200001200849C1F86C020020BDE8F0810000B1
:105030000060014000002C42046001401C600140FF
:105040000060014014002C4284062C4201460548B1
:10505000006810B14FF0FF307047034800690870D6
:105060000120F9E780042C420060014030B502467F
:10507000002011E0114B1B682BB90346401CD35C88
:105080000F4C236308E00F4B1B6823B901230E4C20
:1050900023600023236000BF8842EBD3074B1B1F14
:1050A0001B684BB900BF074B1B68002BFBD10123CA
:1050B000054C23600023236030BD000004082C420F
:1050C0000060014004072C4280062C422DE9F0418B
:1050D00005460E46002400222046641C2A54204621
:1050E000641C2A5401222046641C2A543A4802783F
:1050F0002046641C2A5401222046641C2A540022A3
:105100002046641C2A5401222046641C2A5432483A
:1051100042782046641C2A5402222046641C2A54E9
:1051200010222046641C2A5402222046641C2A5461
:1051300029484088020A2046641C2A54264882785E
:105140002046641C2A5403222046641C2A54302220
:105150002046641C2A5404222046641C2A541E48FB
:105160004068000E2146641C68541B484068C0F328
:1051700007422046641C2A5417488088C0F307223F
:105180002046641C2A54144802792046641C2A5480
:1051900004222046641C2A5490222046641C2A546F
:1051A0000D498868FCF766FDC2B22046641C2A548B
:1051B00009498868FCF75EFD0746074A2819916887
:1051C0003A46FCF7CDFD04498868FCF753FD0444DA
:1051D0003460BDE8F0810000C41F002010B501203C
:1051E000FFF7CEFC10BD00000548017801F03F013B
:1051F0003F2901D10020704701F03F00FBE700008C
:10520000777F7C0070B5044602F04CF9054600201B
:10521000144908601449C1F814029CB1012C10D043
:10522000022C05D0032C14D103201049086011E092
:1052300000200E4908604FF003000B49C1F80C0232
:1052400008E000BF0020094908600749C1F80C02C6
:1052500000E000BF00BF012002490860284602F0BC
:1052600019F970BD002202400020024010220240C5
:10527000FF2803D10021074A116070470121054A28
:1052800011600549096860F38F31034A116000BF5E
:10529000F3E70000B4160442B4200040FF2803D115
:1052A0000021074A116070470121054A1160054934
:1052B000096860F35241034A116000BFF3E7000040
:1052C000C0160442B4200040FF2803D10021074A41
:1052D000116070470121054A11600549096860F3B2
:1052E0000921034A116000BFF3E700009C16044245
:1052F000B4200040FF2803D10021074A1160704705
:105300000121054A11600549096860F3CC21034A6F
:10531000116000BFF3E70000A8160442B42000406B
:1053200070B504460D46FBF739FF054850F82400D8
:10533000A843034941F82400FBF72EFF70BD00008D
:1053400000200040B1F5004F75D02EDC802973D0CD
:1053500013DC082971D009DCB1F1004F6ED00129AE
:1053600057D002295ED0042969D16AE010297DD086
:1053700020296FD04029F7D191E0B1F5006F6AD0B4
:1053800009DCB1F5807F67D0B1F5007F77D0B1F54A
:10539000806FE9D1AEE0B1F5805F71D0B1F5005F0B
:1053A0006FD0B1F5804FDFD1C8E0B1F5000F69D003
:1053B00017DCB1F5002F6FD009DCB1F5803F6CD060
:1053C000B1F5003F6AD0B1F5802FCDD1DAE0B1F56B
:1053D000801F76D0B1F5001F74D0B1F5800FC3D116
:1053E000F4E0B1F1006F6ED009DCB1F1807F6BD0D9
:1053F000B1F1007F69D0B1F1806FB5D10AE1B1F1AF
:10540000805F75D0B1F1005F73D0B1F1804FABD147
:1054100024E19D4A52F8202022F001029A4B43F8E1
:1054200020202EE1984A52F8202022F00202964BCA
:1054300043F8202025E18AE03AE00EE017E11FE181
:1054400014E0914A52F8202022F004028E4B43F8D7
:10545000202016E117E056E038E08B4A52F8202071
:1054600022F00802884B43F820200AE1864A52F8CD
:10547000202022F01002844B43F8202001E12EE08E
:105480004AE052E0ABE0804A52F8202022F02002AD
:105490007D4B43F82020F4E07DE061E069E07A4A4A
:1054A00052F8202022F04002774B43F82020E8E019
:1054B000754A52F8202022F08002734B43F82020D6
:1054C000DFE071E079E0AEE092E09AE06E4A52F8F7
:1054D000202022F480726C4B43F82020D1E06A4AED
:1054E00052F8202022F40072674B43F82020C8E0D5
:1054F000A2E0AAE0644A52F8202022F48062624BC3
:1055000043F82020BDE0604A52F8202022F40062D7
:105510005D4B43F82020B4E05B4A52F8202022F48F
:105520008052594B43F82020ABE0574A52F82020D4
:1055300022F40052544B43F82020A2E0524A52F881
:10554000202022F48042504B43F8202099E04E4A1C
:1055500052F8202022F400424B4B43F8202090E0E8
:10556000494A52F8202022F48032474B43F8202049
:1055700087E0454A52F8202022F40032424B43F89B
:1055800020207EE0404A52F8202022F480223E4B28
:1055900043F8202075E03C4A52F8202022F40022F3
:1055A000394B43F820206CE0374A52F8202022F48F
:1055B0008012354B43F8202063E0334A52F8202014
:1055C00022F40012304B43F820205AE02E4A52F8C1
:1055D000202022F480022C4B43F8202051E02A4A5C
:1055E00052F8202022F40002274B43F8202048E004
:1055F000254A52F8202022F08072234B43F82020C5
:105600003FE0214A52F8202022F000721E4B43F85E
:10561000202036E01C4A52F8202022F080621A4BEB
:1056200043F820202DE0184A52F8202022F0006292
:10563000154B43F8202024E0134A52F8202022F092
:105640008052114B43F820201BE00F4A52F82020D3
:1056500022F000520C4B43F8202012E00A4A52F884
:10566000202022F08042084B43F8202009E0064A1F
:1056700052F8202022F00042034B43F8202000E0A3
:1056800000BF00BF7047000000200040FF2803D18A
:105690000021134A116070470121114A116020B1A5
:1056A000012809D0022817D10EE000210D4A11600F
:1056B0000B4A121D116010E000210A4A11600121FD
:1056C000074A121D116008E00121064A11600021FD
:1056D000034A121D116000E000BF00BF00BFDAE7FF
:1056E0008C1604425017044210B50446FF2C03D117
:1056F00000201849086010BD01201649086024B137
:10570000012C12D0022C20D117E000201249086091
:105710001049091D0860FFF775FD1048006820F06A
:1057200002000F49C1F8340110E000200A49086066
:1057300001200849091D086008E0012006490860A9
:1057400000200449091D086000E000BF00BF00BF41
:10575000D1E7000094160442541704423401024079
:10576000000002400146024850F821007047000046
:105770000020004030B504460D46A11CC8B22946A1
:1057800000F06EF930BD30B504460D46294620467E
:10579000FFF7D8FD30BD70B504460E461546012D05
:1057A00005D1611CC8B2314600F05AF904E0611C11
:1057B000C8B23146FFF7C6FD3146204600F050F929
:1057C00001211E2000F034F970BD00B50246D11C45
:1057D000C8B2FFF7C7FF00BD38B501231B4A1C49FB
:1057E000142025F04FFA80B127F018FA044640F251
:1057F0004F40184B224618A10090082000F02CFDC5
:105800001AA1082000F028FD38BD1948006890F85A
:105810009002C0B10123174A0D49C031172025F06D
:1058200031FA80B127F0FAF9044640F25740094BAB
:10583000224609A10090082000F00EFD0BA10820CF
:1058400000F00AFDE0E700BFDEE7000035B302002C
:10585000400000084DB306005B202564206572728D
:105860006F722025732025645D0000000A0000008F
:10587000A4040020E523020010B50446FF2C03D148
:1058800000206949086010BD012067490860674829
:10589000006864F315506549086034B1012C2DD0BF
:1058A000022C5ED0032C7DD186E004210846FFF750
:1058B00037FD04210620FFF733FD04210720FFF701
:1058C0002FFD10210420FFF72BFD10210620FFF7EC
:1058D00027FD10210720FFF723FD08210420FFF7F3
:1058E0001FFD08210620FFF71BFD08210720FFF7F9
:1058F00017FD0821052000F0A1F891E04FF40021E8
:105900000420FFF70DFD4FF400210620FFF708FDEE
:105910004FF400210720FFF703FD4FF4001104208E
:10592000FFF7FEFC4FF400110620FFF7F9FC4FF4DF
:1059300000110720FFF7F4FC4FF480110420FFF75B
:10594000EFFC4FF480110620FFF7EAFC4FF48011C2
:105950000720FFF7E5FC4FF48011052000F06EF8FA
:105960005EE020210E20FFF7DBFC20211020FFF756
:10597000D7FC20211120FFF7D3FC08210E20FFF7D0
:10598000CFFC08211020FFF7CBFC08211120FFF7E6
:10599000C7FC10210E20FFF7C3FC10210846FFF7BB
:1059A000BFFC00E03BE010211120FFF7B9FC102103
:1059B0000F2000F043F833E04FF480110E20FFF782
:1059C000AFFC4FF480111020FFF7AAFC4FF48011B8
:1059D0001120FFF7A5FC4FF480010E20FFF7A0FC7B
:1059E0004FF480011020FFF79BFC4FF48001112041
:1059F000FFF796FC4FF400110E20FFF791FC4FF4D7
:105A000000111020FFF78CFC4FF400111120FFF75C
:105A100087FC4FF400110F2000F010F800E000BFE9
:105A200000BF00BF2FE70000CC160442B4200040A6
:105A3000014A42F8201070470020004070B504462B
:105A40000D46FBF7ABFB054850F8240028430349FB
:105A500041F82400FBF7A0FB70BD000000200040CF
:105A6000B1F5004F77D02EDC802975D013DC0829E2
:105A700073D009DCB1F1004F70D0012957D0022951
:105A80005FD004296BD16DE0102969D0202968D03E
:105A90004029F7D199E0B1F5006F77D009DCB1F575
:105AA000807F74D0B1F5007F72D0B1F5806FE9D1FD
:105AB000BAE0B1F5805F6CD0B1F5005F6AD0B1F5A6
:105AC000804FDFD1DCE0B1F5000F6ED017DCB1F50F
:105AD000002F6BD009DCB1F5803F68D0B1F5003FF5
