:020000040000FA
:1000000000040020411300004713000049130000C2
:1000100065130000811300009D1300000000000024
:10002000000000000000000000000000E70F0000DA
:10003000000000000000000061100000C971040011
:10004000690C00000000000000000000090D000025
:10005000C10E000000000000E10C000000000000E4
:1000600000000000000000000D1101000000000071
:100070000000000000000000B10B000000000000C4
:10008000FFFFFFFFFFFFFFFFFFFFFFFFFFFFFFFF80
:10009000FFFFFFFF12FFFFFFFFFFFFFFFFFFFFFF5D
:1000A00000F002F800F074FD0AA090E8000C824411
:1000B0008344AAF10107DA4501D100F069FDAFF2EE
:1000C000090EBAE80F0013F0010F18BFFB1A43F036
:1000D00001031847E4020000040300000A444FF043
:1000E000000C10F8013B13F0070408BF10F8014B97
:1000F0001D1108BF10F8015B641E05D010F8016BDC
:10010000641E01F8016BF9D113F0080F1EBF10F83F
:10011000014BAD1C0C1B09D16D1E58BF01F801CB62
:10012000FAD505E014F8016B01F8016B6D1EF9D5E5
:100130009142D6D370470000103A24BF78C878C1E6
:10014000FAD8520724BF30C830C144BF04680C60DD
:1001500070470000084900FB01F0084909684FEAB0
:1001600090304FEA912100FB01F05FEA901001D03E
:10017000401EFDD8704700006EA301007C070020E0
:1001800030B58C4C039D206142EA8110A061E3618F
:10019000E5600120206200202062E06AC007FCD1F7
:1001A00030BDF8B50026834D344648B1012809D04A
:1001B000022812D0032818D06FF025063046F8BD6B
:1001C0002C64FBE7286C0028F8D1E02300221F21D3
:1001D000A3200094FFF7D4FFF0E7E02300221F21C3
:1001E000A3200094FFF7CCFFEAE701202864A8646D
:1001F000AC64E3E7F8B56F4C206DC00701D000F0A8
:10020000C5F80025C0232A46072105200095FFF7E1
:10021000B7FF00BF00F0B5F80028FBD12668C02367
:100220000022072135200095FFF7AAFF00F0A9F86A
:100230000028FBD1206846EA0020F8BDF8B50F463B
:10024000044601F03DF85B4D286DC00701D000F079
:100250009DF86FF0F806012F06D0022F06D0032F6D
:1002600006D0042F3ED105E0A47A04E0E47A02E04F
:10027000247B00E0647B7F2C34D0FFF7BBFF80B28F
:1002800020F4C0704BF68371084004F01F0140EA6F
:100290008100610603D504F0200140EA4120686036
:1002A0000020024600900124E02307210620FFF7EA
:1002B00067FFA0230022072101200094FFF760FFC1
:1002C000012000F053F800BF00F06AF80028FBD0CE
:1002D000002000F04BF80120FFF763FF00F0EEFF75
:1002E0000020F8BD00F0EAFF3046F8BD38B50546FD
:1002F00000F0E6FF2F4C206DC00701D000F046F85B
:10030000FFF778FF80B220F4C0714BF68370014094
:10031000687A00F01F0241EA8201420603D500F02C
:10032000200041EA40216160002002460090012443
:10033000E02307210620FFF723FFA0230022072147
:1003400001200094FFF71CFF012000F00FF800BF10
:1003500000F026F80028FBD0002000F007F801206C
:10036000FFF71FFF00F0AAFF002038BD1149002849
:10037000886802D040F0080001E020F008008860A2
:1003800070470C48406A00F00100704708B5002033
:1003900002460090E0230721FF20FFF7F1FE08BD91
:1003A00010B5FFF727FFC00701D0002010BD0120C6
:1003B00010BD000000600040F8D1050000000020E2
:1003C000C41E0000DC000000E4D50500FCFF012095
:1003D000040000003801000010B503200246084B5D
:1003E00019684FF6FF031940064B0B4343EA0221FD
:1003F000034B196000BF07F015F8002010BD000086
:100400000CED00E00000FA052DE9FE4F0027B9468B
:10041000A248A3490844A349086008460068C01DD3
:10042000C008C0000860084600689F4908449D490C
:10043000086018219D4801F0F8FC9A4801689C4822
:10044000401A9C4908609C48806800F01E00022801
:1004500005D09948806800F01E00042802D1DFF81A
:100460005CA20AE09448806800F01E00062802D1D1
:1004700040F2044A01E04FF0000A4FF0000ABAF1DE
:10048000000F7AD0DAE9010144180CB900BF75E019
:10049000DAF8008018F0030F04D028F0030828F0E1
:1004A00003000444E01CC11700EB917189108C001B
:1004B000A8F11808C1461821484601F0B6FCC9F851
:1004C00008407C480068844209D92246794801687E
:1004D0007BA02FF053FD6FF00600BDE8FE8F714842
:1004E0000068404505D808EB040018307049884280
:1004F00005D383A02FF042FD6FF01500EDE708EB68
:10050000040018306A4988420ED208EB040000F15A
:1005100018071821384601F088FC08EB0400183051
:100520006349081A1838B8605E480068A8EB0000F4
:10053000A0F1300424F007045A4805681821284621
:1005400001F073FC204604EBD0714910A960A86843
:10055000284400F118061821304601F066FC2046B8
:1005600004EBD0714910B16017B1B86801E004E044
:10057000002020444F49086000BF00BFBAF1000FBF
:100580001FD1484805681821284601F04EFC49480B
:1005900000681821C1EB5000A86042480168A868B3
:1005A00018300E181821304601F03FFC4148006811
:1005B0001821C1EB5000B0603E48006830383D491A
:1005C00008603FB939484660056068602E60756014
:1005D000306008E035484760056068602E607560EF
:1005E00037607E6038603348006830498860032097
:1005F00028730C20307307B13873B9F1000F02D0A3
:10060000082089F80C0005F11800A96801F00DFC1C
:1006100006F11800B16801F008FC27B107F11800D5
:10062000B96801F002FCB9F1000F2FD04348C9F8B6
:100630001000D9F8080000F11804E01704EB9050FE
:100640000294801201D03EA000E03EA0A346E11734
:1006500004EB9151891207D0A04644464FEAE87155
:1006600008EB9151891200E0214609EB0403CDE922
:10067000001099F80C0010F00C0F01D032A000E02F
:1006800033A001464A4634A02FF078FC0748806822
:100690003D4908603D49086000201EE7C41E000077
:1006A00084220100FC04002000000020B032002061
:1006B00000000220000500200050004004047C00DF
:1006C0004D4D4D3A707265616C6C6F632066616967
:1006D0006C656421206E6F7420656E6F756768208D
:1006E0006D656D6F72792825642920746F206265AD
:1006F000207265717569726564282564290D0A0088
:100700004D4D4D3A707265616C6C6F632066616926
:100710006C656421206D656D6F72792077696C6CF2
:10072000206265206F7665727769727465206461F6
:100730006E67696F75736C790D0A0000DFBC213735
:100740004B0000004200000068696768000000007C
:100750006C6F7720000000004D4D4D3A707265615E
:100760006C6C6F63202573206D656D6F7279205BF3
:100770003078253038582D2D3078253038585D2088
:10078000256425730D0A00000405002008050020DB
:1007900010B500201449C1F80C011448006820F479
:1007A0000070124908600846006820F001000860E7
:1007B000002009F0CBF9012009F0C8F90B480068C6
:1007C00020F4007000F500700849086008460068D1
:1007D00020F00100401C086001200349C1F80C0111
:1007E00003490860002010BD08000A420050004084
:1007F00084070020F8B5082546F0CCFC00F066FC24
:1008000034A02FF0BBFB17E039480068009000BF10
:100810003749009809688842FAD035480068009046
:100820003448006800F05AFC314800680099401ACA
:100830000090009800B105E02E48006840002D4966
:100840000860E1D100BF2B480068400829490860D2
:10085000084604681EE027480068204325490860D0
:1008600023480068009000BF214900980968884229
:10087000FAD01F48006800901E48006800F02EFC67
:100880001B4800680099884204D01A480068A043B9
:10089000184908602800A5F1010502D0600804008D
:1008A000D9D1144800683221B0FBF1F06421B0FBCB
:1008B000F1F201FB12060F48006841F28831B0FBEB
:1008C000F1F70C480368324639460BA02FF056FB6F
:1008D0000020F8BD00006C6962726174696E672067
:1008E00064656C6179206C6F6F702E2E2E0D0A007E
:1008F000040900207C070020000025642E253032EA
:100900006420426F676F4D49505320286C706A3DD8
:100910002564290D0A00000010B519484AF0DBFCD7
:10092000174814304AF0D7FC154854304AF0D3FC2D
:1009300013490839084641610020C86108468162B0
:10094000816610480068401C0E4908600C48083851
:100950000D49086038F0DAFC09480838006B0B498B
:100960000968884204D906480838006B07490860BE
:1009700007480068401C06490860002010BD0000C0
:100980008808002010090020F80800201409002021
:100990002C09002010B500200649086040210648B7
:1009A00001F043FA4FF42261044801F03EFA0020BE
:1009B00010BD000070150020004D00204C0B0020E1
:1009C0000548C068054908600348006820F0010038
:1009D00001490860002070470000024030040020F8
:1009E0000000000091070000D9030000F507000097
:1009F000090400001909000095090000C109000060
:100A00000000000027CC05000600000001000000E7
:100A10003D7104002ECC050040CC05006ECC0500D5
:100A200006000000010000000171040075CC050003
:100A300096CC0500BBCC05000300000001000000BF
:100A400029D70200BFCC0500E9CC05005FCD050029
:100A5000030000000200000069D6010063CD05001C
:100A6000A1CD05006BCE05000400000001000000D0
:100A7000D9CE010070CE0500A7CE050057CF0500E6
:100A800005000000010000001D7304005DCF05009B
:100A900091CF0500EECF050004000000010000002A
:100AA000E5E80200F3CF05002DD005001FB5604634
:100AB0000BF0BAFD1FBD1FB560460BF00FFE84465C
:100AC0001FBD1FB560460BF065FE84461FBD1FB5F8
:100AD00060460BF09CFE1FBD6E2901F098837029C3
:100AE00000F09C85662916F03EA6652916F03BA607
:100AF000672916F038A6612916F037A603681B0A85
:100B000028BF41F08001692900F00A85642900F0BE
:100B10000785752900F004856F2901F089847829FB
:100B200000F06885E92901F02184E42901F01E84A0
:100B3000F52901F01B84EF2901F08684F82900F0E3
:100B400067850368DB0928BF41F08001632901F054
:100B5000A283732901F0A783E32902F0A981F32975
:100B600002F0AE81002070471FB500F04AFF01F08F
:100B7000BBFD04000020002156F0FCFA401C606020
:100B80000020002156F00CFBE0601FBD10B510BD29
:100B9000DFF80CD0FFF7E8FF2BF0CCFD02F03CFCB7
:100BA0000004002003B4FFF7F1FF03BCAFF30080A3
:100BB00010B509F0FFF9142023F0C2FD28B924492B
:100BC0000868002801DD401C0860224C20691930AB
:100BD00020616069401C606109F0FCFA60692828A6
:100BE00035D3002060611C480168491C0160002069
:100BF00049F0A8FA0146082024F0F2F817480078D6
:100C0000C0B117480068C01E092807D86078401C8A
:100C100040B26070142801DD25F09CF811F0AEFDA3
:100C2000012801D025F096F825F034F9BDE81040F0
:100C30003FF04EBE2078401C40B220701E28EDDDF3
:100C4000084909780029E7D03C28E5DCE6E710BD33
:100C50003C040020100400207805002053080020E8
:100C6000AC070020650700202DE9F04700251A4C4D
:100C70001A4F2CE005EB450654F826001FF08EF8BD
:100C8000002823DB00F01F02012101FA02F84FEADD
:100C900010691F2101EB8900C0B2824604F0EBFB12
:100CA000414610EA080F11D0504604F0B9FB54F841
:100CB000260023F05DFC04EB860054F82610426801
:100CC0004846904754F8260023F082FC6D1C386893
:100CD0008542CFDBBDE8F087182D002038040020C6
:100CE00010B509F02FF9074CA069002809D06078E9
:100CF00010B9E06825F0A4FAA169E068BDE81040E9
:100D0000084710BD70040020F8B500210C2003F046
:100D100037FF0546C00723D0204C6068E0B120882B
:100D20004FF40066B04206D221886068084404F09F
:100D30002FF8012821D0A0684FF4F55600280BDCCD
:100D4000EFF3058000B300231A46194630462EF013
:100D50009BFDA068401CA06000210A2003F010FF4A
:100D600015F01E0F19D00021052003F009FFBDE882
:100D7000F84000210A2003F003BF2088401C80B205
:100D80002080B042D0D3D6E7002003460246014679
:100D9000009030462EF0AEFBDBE7F8BD900400205B
:100DA00008B52748806910F01E0F25D02548D0F8D7
:100DB000EC0218B124A02FF0E1F816E02148D0F899
:100DC000F00218B127A02FF0D9F80EE01D48D0F896
:100DD000F40218B12AA02FF0D1F806E01948D0F893
:100DE000F80210B12CA02FF0C9F801203049C1F849
:100DF000E0033049C1F87C021248D0F8E802C0B1E3
:100E000000BFEFF3058048B90020034602460146C3
:100E1000009041F601602EF06DFB06E000231A46BB
:100E2000194641F601602EF02FFD01202149C1F83D
:100E300074022148006810B101202049086008BDF3
:100E40000060014018002C424675617274205258AF
:100E5000206572726F7220696E746572727570743B
:100E60000D0A000046756172742052582065727236
:100E70006F72206F76657272756E0D0A0000000049
:100E80004675617274205258206572726F722050DC
:100E900061726974790D0A00467561727420525846
:100EA000206572726F72204672616D650D0A0000D6
:100EB00020002C4214002C4200072C4288062C42B1
:100EC00008B52A48D0F8E802E0B101202849C1F865
:100ED00074020021082002F0BBFF00BFEFF3058081
:100EE00048B9002001230246014600904FF4F85013
:100EF0002EF000FB06E00123002211464FF4F850CB
:100F00002EF0C2FC1B48806910F01E0F22D017483B
:100F1000D0F8EC0210B118A02FF030F81348D0F838
:100F2000F00210B11BA02FF029F81048D0F8F402FD
:100F300010B118A02FF022F80C48D0F8F80210B128
:100F400014A02FF01BF801201849C1F8E00308494C
:100F5000C1F87C021648006830B11648006818B124
:100F600001201349091D086008BD000018002A422D
:100F700014002A4200500140427561727420525898
:100F8000206572726F7220696E746572727570740A
:100F90000A00000042756172742052582065727216
:100FA0006F72206F76657272756E0A0020002A4299
:100FB00084062A4200072A4262B6704772B670471A
:100FC00061B6704771B67047401EFDD8704700008B
:100FD00062B6704772B6704761B6704771B67047B7
:100FE000401EFDD870472C4B19684868B0E8F00FD8
:100FF00080F309884FF0000080F311884EF00D0E49
:101000007047000000000000044800F1080000687C
:10101000006880F3088862B600DF000000ED00E0A1
:101020000FB54FF480604FF000010968A1EB00019B
:1010300001F101014FF0A50211F8013B401E03D957
:101040009342F9D000F101000349086003494FF4CD
:10105000806008600FBD0000F0040020EC04002058
:10106000EFF309800C4B1A6820E9F00F506008B5C7
:101070004FF0200080F311884AF062FD4FF000002D
:1010800080F31188BDE8084019684868B0E8F00F9F
:1010900080F3098870470000F808002062B67047A6
:1010A00072B6704761B6704771B67047401EFDD882
:1010B0007047000062B6704772B6704761B67047FD
:1010C00071B67047401EFDD87047000062B6704789
:1010D00072B6704761B6704771B67047401EFDD852
:1010E0007047000062B6704772B6704761B67047CD
:1010F00071B67047401EFDD87047A0E8F01F7047DA
:1011000062B6704772B6704761B6704771B6704785
:10111000401EFDD870472DE9005050E800EFAEF1B9
:10112000010E40E800EC9CF0000FF6D1BFF35F8F9A
:101130009EF0000F44BF84468847BFF35F8F00BF17
:10114000BDE800902DE9005050E800EFAEF1010E2F
:1011500040E800EC9CF0000FF6D1BFF35F8F9EF0EB
:10116000000F4ABF84464FF0000C88476046BFF32B
:101170005F8F00BFBDE800902DE90050BFF35F8F87
:1011800000BF50E800EF0EF1010E40E800EC9CF0CB
:10119000000FF6D1BFF35F8FBEF1000FDCBF8446B6
:1011A0008847BDE800902DE904504FF0807250E868
:1011B00000EFAEEB020E40E800EC9CF0000FF6D121
:1011C0009EF0000F1CBF84468847BFF35F8F00BFAF
:1011D000BDE804902DE90450BFF35F8F00BF4FF0CE
:1011E000807250E800EF964440E800EC9CF0000F5D
:1011F000F7D124BF84468847BDE80490FFF78BFFF2
:1012000070472DE90050BFF35F8F00BF50E800EF3B
:101210000EF1010E40E800EC9CF0000FF6D19EF0BC
:10122000000F04BF8C468847BDE8009062B6704747
:1012300072B6704761B6704771B67047401EFDD8F0
:101240007047000062B6704772B6704761B670476B
:1012500071B67047401EFDD8704704B550E8002FA6
:1012600040E8001292F0000FF8D14FF0000004BDEA
:101270000CB551E8002F024441E8002393F0000F21
:10128000F7D110460CBD0CB551E8002FA2EB0002BF
:1012900041E8002393F0000FF6D118460CBD0CB5C1
:1012A00051E8002F22EA000241E8002393F0000FEA
:1012B000F6D10CBD62B6704772B6704761B6704722
:1012C00071B67047401EFDD8704700000B49D1F839
:1012D00000C04A685CF8043B1068184442F8040BEC
:1012E0008C4528BFA1F1DC0C8A4228BFA1F1DC02A9
:1012F000C1F800C04A6020F000407047B4400120AF
:10130000DFF8B4D0ADF5805D2C48A0F580600068B2
:1013100001B40BF05DFA2A4C2A4DAC4209D294E894
:101320000F0030B443F00103984730BC04F11004BF
:10133000F3E7FFF719FCDFF884D0234800470000EB
:10134000004622480047FEE71EF0040F0CBFEFF3F3
:101350000880EFF309802DE9F00FEFF3088121F009
:10136000F9BF70471EF0040F0CBFEFF30880EFF3D6
:1013700009802DE9F00FEFF3088121F0EBBF7047F2
:101380001EF0040F0CBFEFF30880EFF309802DE986
:10139000F00FEFF3088121F0DDBF70471EF0040F5E
:1013A0000CBFEFF30880EFF309802DE9F00FEFF3A6
:1013B000088121F0CFBF7047FCFF0120000400200E
:1013C000B8030000D803000035C702000113000075
:1013D00010B5044600F094FE0068005D00F00100C6
:1013E00010BD00007CB51D4616460C00009001D0D3
:1013F0002044401E074B7B442A46694601903046F4
:1014000000F01FFF05461CB10020694600F02CFFCC
:1014100028467CBD790E00000FB41CB5084B06AA07
:101420007B4469460090059800F00BFF04460020BD
:10143000694600F019FF20461CBC5DF814FB000053
:10144000450E00000FB47CB50C0009AA009001D035
:101450002044401E084B7B4469460190089800F0E8
:10146000F0FE05461CB10020694600F0FDFE28464E
:101470007CBC5DF814FB0000190E000070B504463A
:1014800085690068C10601D5302600E02026C00726
:1014900008D070BDD4E9012130469047206A00F1A0
:1014A000010020626D1EF5D570BD70B504468569DA
:1014B0000078C00708D170BDD4E9012120209047F1
:1014C000206A00F1010020626D1EF5D570BD70B577
:1014D0000C460546012A05D02878800600D5EA6921
:1014E000002302E0012305E05B1C934202D2E05C92
:1014F0000028F9D1A869E618C01AA861286A18441A
:1015000028622846FFF7BAFF04E0D5E9012114F864
:10151000010B9047B442F8D32846FFF7C6FF70BDD1
:101520002DE9F0410646002410687529314616A5BC
:1015300011D000F0FEFD002803DAC0F1000013A571
:1015400007E031688A0701D511A502E0490704D5F3
:1015500010A5012401E000F0F5FD00210A2306F1A9
:10156000240707E0B0FBF3F203FB1200303078549D
:101570001046491C0028F5D123462A463046BDE8CE
:10158000F04100F0E8BD0000000000002D00000068
:101590002B00000020000000F0B40D460188090572
:1015A00002D5234C7C4402E0214C7C440E340021C3
:1015B00000F124060BE002F00F074FEA1212E75D7C
:1015C00042EA03724FEA1313775401F1010152EA20
:1015D0000307F0D102780023120704D5702D06D03E
:1015E00009B1113402232246F0BC00F0B4BD10341E
:1015F0000123F8E770B504460D462146106800F057
:10160000A1FD024629462046BDE870400023C3E7FD
:10161000D21D22F00703D3E90023BDE70368126857
:1016200043F0200303600823C3610023B4E70000F4
:1016300098AC05002DE9F05F894604464FF0000A9A
:10164000DFF878B1FB44C0F820A02046E168884765
:10165000002875D0252806D0D4E901219047206ABA
:10166000401C2062F1E700265F462046E16888477B
:101670002028054608DB312D06D207EB050010F8BF
:10168000200C08B10643F0E7B00701D526F00406A8
:10169000C4F81CA00027C4F818A02A2D09D0284699
:1016A0000BF014FC38B304EB8708303DC8F8185031
:1016B00019E059F8041B204604EB87029161E168A8
:1016C0008847012F054618D1E069002820DA26F066
:1016D00020061DE0D8F8180000EB800005EB400064
:1016E0003038C8F818002046E168884705460BF0F6
:1016F000EDFB0028EED1012F0AD02E2D08D1204677
:10170000E16888477F1C0546022F46F02006C4DBAF
:10171000A069002803DA404246F00106A061F00704
:1017200001D026F010066C2D0BD0682D09D04C2D61
:1017300039D06A2D35D0742D35D07A2D33D016E0BE
:1017400038E0E1682F4620468847B842054609D16F
:101750006C2F26D04FF48060E1680643204688470E
:10176000054604E06C2F1AD04FF4807006430DB389
:10177000A5F14100192802D8203546F400664A46F2
:101780002946204626604E46FFF7A6F980B101287B
:101790000BD0F61D26F0070000F1080955E74020A0
:1017A000E4E78020D8E70020D6E706F104094CE7FB
:1017B000284651E7206ABDE8F09F000020AC0500F4
:1017C0000FB400B58DB010A9099000910B904FF0A7
:1017D000FF300A9000200C90064878440690064896
:1017E00078446A4607900F9909A800F04BFE0DB0A7
:1017F0005DF814FBC70C0000DF0C00002DE9FF5F53
:101800001D464FF0FF3B91464FF000085F46D5E97B
:101810000146A96901987F1C8847296A8246884742
:101820000028F6D11AF101000CD0002E24F4C06477
:1018300019DD600614D5BAF12B0F09D0BAF12D0FBE
:101840000ED103E0584604B0BDE8F09F44F4806434
:10185000A96901987F1C8847761E8246002E02DD0A
:10186000BAF1300F03D0B9F1000F26D032E0A969E8
:10187000761E01987F1C44F400748847002E82462F
:1018800005DDBAF1780F06D0BAF1580F03D0B9F1DF
:10189000000F10D01EE0B9F1000F02D0B9F1100F07
:1018A00018D1A969761E01987F1C24F4007488471A
:1018B0008246102002E0082000E00A20814609E06C
:1018C000A96908FB0908761E01987F1C44F400747E
:1018D00088478246002E05DD4946504600F0BEFD91
:1018E0000028EDDAE96901988847A00502D46FF075
:1018F0000100A8E7E00727D1600614D5600502D5EE
:10190000C8F1000000E04046296801F104022A60A5
:101910000968220501D5087016E0220701D5088064
:1019200012E0086010E0286800F1040129600068F6
:10193000210502D580F8008006E0210702D5A0F835
:10194000008001E0C0F8008038467CE770B50646AC
:1019500000F0DEFB0468054630460A22002100F054
:1019600002F82C6070BD2DE9F04791460F46804685
:101970000446002614F8015B2DB100F0C1FB00689D
:10198000405DC007F6D12B2D02D02D2D18D0641E3E
:101990004A463946204600F0A5FD27B13968A142E4
:1019A00001D1C7F800804FF0020471050BD5404209
:1019B000002803DD00F0ACFB0460A007BDE8F08761
:1019C00046F48066E4E70028F8DA00F0A1FB046042
:1019D0006FF00040F2E700000B4910B5A1F17C0266
:1019E0000A4CC2E93712372106E000EB104342F8F7
:1019F0002130074B00FB03400B1EA1F10101F4DC79
:101A000010BD0120E8E7000054400120E119D6662E
:101A1000CD0D0100014A00F0B5BD0000C01E002040
:101A2000401ECAB210F8011F8A4202D00029F9D123
:101A30000020704710B5431E13F8014F002CFBD156
:101A400005E011F8014B002C03F8014B03D0521EA6
:101A5000F7D20021197010BD30B505460B462A4655
:101A600013F8014B12F8010B08B1A042F8D01CB1D9
:101A7000002802D06D1CF1E7284630BD40EA010382
:101A800010B59B070FD1042A0DD310C808C9121F27
:101A90009C42F8D020BA19BA884201D9012010BD61
:101AA0004FF0FF3010BD1AB1D30703D0521C07E02E
:101AB000002010BD10F8013B11F8014B1B1B07D192
:101AC00010F8013B11F8014B1B1B01D1921EF1D103
:101AD000184610BD40EA0103024630B59B0710D1FD
:101AE0004FF0013400E008C208C91D1B9D4315EAF0
:101AF000C41FF8D013F0FF0102F8011B0DD01B0A20
:101B0000F8E711F8013B002B02F8013B05D011F872
:101B1000013B002B02F8013BF3D130BD2DE9F04130
:101B2000054690460E460020044600E0641C4445ED
:101B30000BD2285D00F0F0FA0746305D00F0ECFAB9
:101B4000381A02D1295D0029F0D1BDE8F0812DE9D4
:101B5000F0410E460546002400E0641C285D00F0BC
:101B6000DBFA0746305D00F0D7FA381A02D1295D5A
:101B70000029F2D1BDE8F08110B5431C02E010F855
:101B8000011B71B18107FAD14FF0013202C88C1AE2
:101B90008C4314EAC211F9D0C01A0A0603D0C01E41
:101BA00010BDC01A10BD0A0401D0801E10BD09026C
:101BB000FCD0401E10BD40EA010370B59B072ED13A
:101BC0004FF00136042A2AD308C810C9121F9D1BE2
:101BD0009D4315EAC61517D0D8B2E1B2401A50EAB3
:101BE000056110D198B2A1B2401A50EA05410AD15C
:101BF00023F07F4024F07F41401A50EA052102D1B2
:101C0000180EA0EB146070BDA342DBD018BA21BA45
:101C1000884201D9012070BD4FF0FF3070BD0AB974
:101C2000002070BD10F8013B11F8014B63B1A342D5
:101C30000AD1521E08D010F8013B11F8014B1BB11C
:101C4000A34201D1521EEDD1181B70BD421E12F8E5
:101C5000013F002BFBD111F8013B002B02F8013BA7
:101C6000F9D17047032A40F2308010F0030C00F0E5
:101C7000158011F8013BBCF1020F624498BF11F8C6
:101C800001CB00F8013B38BF11F8013BA2F104027F
:101C900098BF00F801CB38BF00F8013B11F00303F7
:101CA00000F06780083AC0F0088051F8043B083A19
:101CB00051F804CBA0E80810F5E7121D5CBF51F8FD
:101CC000043B40F8043BAFF30080D20724BF11F877
:101CD000013B11F801CB48BF11F8012B24BF00F8DC
:101CE000013B00F801CB48BF00F8012B7047431AB5
:101CF00028BF9A427FF6B6AF032A1044114440F23F
:101D0000268010F0030F1EBF11F8013D521E00F88F
:101D1000013D10F0030F7FF4F6AF11F0030300F064
:101D20006684083AC0F00B8051F8043D083A51F837
:101D300004CD40F8043D40F804CDFFF7F3BF121D79
:101D40005CBF51F8043D40F8043DAFF30080D2077A
:101D500024BF11F8013D11F801CD48BF11F8012C45
:101D600024BF00F8013D00F801CD48BF00F8012C68
:101D7000704710B5203AC0F00B80B1E81850203AF7
:101D8000A0E81850B1E81850A0E81850BFF4F5AF1B
:101D90005FEA027C24BFB1E81850A0E8185044BFA5
:101DA00018C918C0BDE810405FEA827C24BF51F812
:101DB000043B40F8043B08BF7047D20728BF31F806
:101DC000023B48BF11F8012B28BF20F8023B48BF57
:101DD00000F8012B704702F0FF0343EA032242EAB6
:101DE000024200F002B84FF000020429C0F0128055
:101DF00010F0030C00F01B80CCF1040CBCF1020FBE
:101E000018BF00F8012BA8BF20F8022BA1EB0C0192
:101E100000F00DB85FEAC17C24BF00F8012B00F888
:101E2000012B48BF00F8012B70474FF0000200B5AE
:101E3000134694469646203922BFA0E80C50A0E8ED
:101E40000C50B1F12001BFF4F7AF090728BFA0E89B
:101E50000C5048BF0CC05DF804EB890028BF40F867
:101E6000042B08BF704748BF20F8022B11F0804FA9
:101E700018BF00F8012B704710B5044610F0030F8F
:101E800008BF11F0030F40F015804FF0013E121F04
:101E9000C0F20E8051F8043BA3EB0E0C2CEA030CAD
:101EA0001CEACE1C08BF40F8043BF0D0A1F10401AD
:101EB00002F10402521E08DB11F8013B002B00F86E
:101EC000013BF7D11146FFF78EFF204610BD000001
:101ED0004FF0013C50F8042B51F8043B9A4221D1B9
:101EE000A2EB0C03934313EACC1317D150F8042B45
:101EF00051F8043B9A4215D1A2EB0C03934313EA29
:101F0000CC130BD150F8042B51F8043B9A4209D161
:101F1000A2EB0C03934313EACC13DBD04FF0000089
:101F2000704700BFD01A01BAB1FA81F101F018016F
:101F300022FA01F0CB40C1F12001DBB2C0B2C01ADD
:101F40002CFA01F3D11A914311EAC311E6D170477B
:101F5000014900F077BB0000BC40012030B50368A8
:101F60001C1404EB21459BB289B2194495FBF2F491
:101F700002FB145301EB034191FBF2F302FB13113B
:101F800001E05B1E11440029FBDB016003EB044010
:101F900030BD2DE9F04704464FF0FF3A86B00068A7
:101FA000029060680390A0680490E0680190206946
:101FB00000906569B5F1804F7EDCB5F1404F7BDB69
:101FC0003C22002102A8FFF7C9FF3C22014603A8DA
:101FD000FFF7C4FF1822014604A8FFF7BFFF411E08
:101FE00040F2B55201A8FFF7B9FF0C220646684639
:101FF0000021FFF7B3FF00EB860028443E4D00268A
:102000007D440FE09A1A491CCDE90012022902D042
:102010000C2907D104E0810704D0521C019201E091
:10202000401C00960099019B6A5C9A42EADD0129F6
:1020300006D11C2B04D1810702D00221CDE9001664
:10204000A0F146018B2940D20199009B00220F4646
:1020500002E0AE5C521C31449A42FADB012B02DDF5
:10206000820700D0491E40F2B55540F26D16C217E6
:1020700000EB927292106A4300F0030505FB062202
:1020800085070A4400D1521E049D02EB4206DDF88A
:102090000C80A94605EBC605184EC5EB0515DDF805
:1020A00008C008EB850535442E14ADB2C6EB061604
:1020B000C5EB0515B60000E007E00CEB850506EB67
:1020C000154666F31F45360C03D0504606B0BDE8F2
:1020D000F0877F1CC4E90430521C072092FBF0F308
:1020E00004F1180600FB1320A6E803042846C4E9FF
:1020F0000297C4E900C8E9E780A20500A039CEFD37
:1021000010B500F0F1FA001D10BD00BF69500500C8
:1021100000487047E840012010B50446FFF7F0FF83
:102120000068005DC00602D504F1200010BD204605
:1021300010BD09684A0501D540B27047C905FCD5F4
:1021400000B2704709684A0501D5C0B27047C90599
:10215000FCD580B270472DE9F0470D46994692466E
:10216000044600F124080168880604D5E06921F0DE
:102170001001216000E00120A84202DDA0EB05076C
:1021800000E00027A16907EB050202EB0900A1EBC3
:102190000000A0612078C00602D42046FFF76EF947
:1021A000002608E0D4E901211AF806009047206AC9
:1021B000401C761C20624E45F4DB2078C0060AD510
:1021C0002046FFF75BF906E0D4E901213020904773
:1021D000206A401C2062381EA7F10107F4DC07E0EA
:1021E000D4E9012118F805009047206A401C2062BC
:1021F000281EA5F10105F3DC2046FFF756F92078EB
:10220000000602D50220BDE8F0870120FBE7116837
:102210000268006A530501D508700BE0D30501D5AB
:10222000088007E0130603D5C217C1E9000201E0E8
:10223000520608600120704701694A1C0261087853
:10224000704700B58FB0CDE90131002105910549F6
:102250007944CDE9031011466846FFF7EBF90FB05A
:1022600000BD0000E5FFFFFF0A6802F8010B0A60ED
:102270007047D1E900239A4202D2531C0B601070C0
:10228000704710B5436913B1AFF3008001E0FFF769
:102290001EF9012010BD127800F124010A700022FD
:1022A0004A700122EDE711684FF0FF32E9E70000C4
:1022B0002DE9FF5F15468A460446DFF8AC80F844F6
:1022C0000027D8E900103E46CDE9001011E03AF8A9
:1022D00016106A4602A800F0AFFF411C07D0217813
:1022E000890603D5E269391891420ED8074406F1F0
:1022F00001062078800602D5E069B84205DDAE42CD
:10230000E5DB3AF816000028E1D1A069C01BA06106
:102310002046FFF7B3F8D8E90010CDE900100020FF
:1023200016E03AF818106A4602A800F085FF8146C8
:10233000401C0BD000250DF1080B05E0D4E901216C
:102340001BF8050090476D1C4D45F7D308F10100BF
:10235000B0428046E5DB206A384420622046FFF721
:10236000A4F8BDE8FF9F0000BA9F05002DE9F041E9
:102370008046D21D22F007020025D2E90002F5298D
:1023800014A612D0002A06DA0023D0EB030063EB78
:10239000020211A608E0D8F800108B0701D50FA69D
:1023A00002E0490701D50EA601251146002408F1D7
:1023B000240704E000F09CF930323A55641C50EADE
:1023C0000102F7D12B46324621464046BDE8F04196
:1023D000FFF7C1BE000000002D0000002B00000030
:1023E0002000000030B4002100F124040CE002F0D1
:1023F000070505F130054FEAD20242EA43726554FF
:1024000001F101014FEAD30352EA0305EFD1046859
:10241000002310A2250708D504F020040C4304D0A3
:10242000C46901230CA2641EC46130BCFFF793BED3
:1024300010B5044621461068FFF784FE0246204688
:10244000BDE810400023CDE7D21D22F00701D1E9FD
:102450000023C7E700000000300000003A2800D247
:10246000303820F02002412A01D3A2F137008842FF
:1024700001D34FF0FF3070470268114413780160B8
:1024800018467047D160054979445161044979443F
:10249000116200211161114600F016BDEDFFFFFF32
:1024A0003FEFFFFF426842B1016811F8013B23B1E1
:1024B000521EC0E90012184670470121C160881EF3
:1024C000704742685AB1C368016843B983688B4258
:1024D00005D0491E521CC0E90012002070474FF081
:1024E000FF3070472DE9F05F824615468B46002786
:1024F0000AF10104B9460078302801D09DB113E0FB
:1025000014F8010B0127782803D0582801D045B1D1
:102510000AE00DB1102D07D1002714F8010B10258A
:1025200002E0082500E00A250026B0460EE005FB83
:10253000080005FB06F101271FFA80F801EB1046A1
:10254000B6F5803F00D3B94614F8010B2946FFF7D2
:1025500085FF0028EBDABBF1000F05D00FB1641E38
:1025600000E05446CBF80040B9F1000F06D0FFF769
:10257000CFFD02210160C81EBDE8F09F48EA064079
:10258000FAE700002DE9F04115460E46040002D19D
:102590002C6804B90BA4204600F07EFE0444207889
:1025A00070B127463146384600F066FE0444207874
:1025B00010B1002004F8010B38462C60BDE8F08112
:1025C0000027F9E700000000431A28BF9A427FF66F
:1025D000D0AB104410F0030F11441EBF11F8013DA1
:1025E000521E00F8013D10F0030F7FF4F6AF103AD1
:1025F000C0F00A8010B531E91850103A20E918509F
:10260000BFF4F9AFBDE81040530724BF31E908100B
:1026100020E9081044BF51F8043D40F8043D12F091
:10262000030F08BF7047D20728BF31F8023D48BFEB
:1026300011F8012C28BF20F8023D48BF00F8012CFA
:102640007047000070B50C46016800204A1C34D069
:1026500040F2B5553C23B1FBF3F203FB12112160AC
:10266000B2FBF3F103FB112218236260B1FBF3F21A
:1026700003FB1211A16046F2E0310A440721B2FBCC
:10268000F1F301FB1321B2FBF5F305FB1322A1616A
:102690009900B2F5B77F06D3521EAD10B2FBF5F329
:1026A000194405FB13220F4BE261616189077B44EA
:1026B0000CD03B2A0AD3521C08E02C212046FFF7FD
:1026C000B4FB0120E0600AE0521A401C195C914200
:1026D000FAD9521CC4E903204FF0FF302062204693
:1026E00070BD0000D29B05000048704708410120E2
:1026F00030B5B0F10A024FEA900E71F100034EEAD4
:10270000817EB0EB0E0061EB91014FEA101E4EEAA4
:10271000017E10EB0E0041EB11114FEA102E4EEA34
:10272000016E10EB0E0041EB11214FEA104E4EEA04
:10273000014E10EB0E0041EB1141401841F1000138
:102740004FEAD00040EA41704FEAD10110EB80051A
:102750004FEA810444EA907444EB01046D1944EBA0
:102760000404521BA3414FF0000348BF0A3200D5B6
:1027700030BD401C41F1000130BD70472DE9FF4FD5
:102780000C461E464FF0FF378BB0D2E90001DDF852
:1027900060800A908A46C1F30A5505B93D4600217A
:1027A00008464FF00000BAF1000F00F4400005DACF
:1027B00000EB80004FF4400101EA50004FEA9059CD
:1027C000B9F1010F00DDB9460A9850EA4A000ED06F
:1027D00044F61050A5F2FF3545432F14B8F1000F11
:1027E0001ED07542291E1EDDC9F100021CE0B8F1A1
:1027F000010F4FF0000001D0302103E0F24305E06B
:102800002154401CB042FBDB304600220021215401
:102810000B99C1F80880C1E900200FB0BDE8F08F26
:10282000BD1B6D1CDEE74A4600DA694206A800F0CF
:1028300081FD06AB07CB03AB07C350460A9900F0F6
:10284000F1FD8DE80700A0F500501F3800900398B7
:10285000002D09DD42F21F014A46084403A90390F6
:10286000684601F050F808E0A0F500504A461F38CD
:1028700003A90390684601F05AF88DE807000004A8
:10288000000C03D04FF0FF30410800E01046B8F1D3
:10289000000F03D00022009215461FE0751E06D4DB
:1028A000FFF726FF02F1300262556D1EF8D5B346E0
:1028B0000122084302D000227F1C04E02078302847
:1028C00001D100227F1E002A099787D01DE0112D1B
:1028D00007DAFFF70DFF303262556D1C50EA010236
:1028E000F5D108430FD10021681E05E0235C625C2E
:1028F0006354491C2254401E8142F7DBAB46A81B9F
:10290000401E099001E0009848B1002004F80B0037
:102910000B98099AC0F80880C0E9002B7DE71126C2
:102920004FF000085AE72DE9F04F88460446D21DC3
:1029300022F0070191B0D1E90001CDE90A0109F0C7
:10294000DBFD02460B98C00F01D02D2007E0206868
:10295000810701D52B2002E0202101EAC000032AD3
:10296000099001D0072A05DB03464146204600F0C6
:10297000A1FC0FE12078800601D5E06900E0062087
:10298000B8F1650F814606D0B8F1660F18D0B8F1DE
:10299000670F72D132E00020B9F1110F009001DB16
:1029A000112301E009F101030AAA01A90CA8FFF70C
:1029B000E5FEDDE90C70002609F10105834648E0DB
:1029C00001204B4600904FF000470AAA01A90CA82D
:1029D000FFF7D4FEDDE90DB00C995D46002618B96D
:1029E00009F1010001EB0005B9EB050003D4C0F1CA
:1029F000FF3609F10105A5EB09002BE0B9F1010F44
:102A000001DA4FF001090020B9F1110F009048469A
:102A100001DD112300E003460AAA01A90CA8FFF773
:102A2000ADFEDDE90C704D46002683462078000798
:102A30000AD4AB4500DA5D4601A8012D04DD411939
:102A400011F8011C302907D04F4502DA17F1040FA5
:102A500004DA0120824610E06D1EEEE7002F02DC52
:102A6000ED1B3E4403E0781CA84200DD0546A7EBC1
:102A7000060000F1010A4FF000472078000703D458
:102A8000AA4501DB4FF0FF3A0021B7F1004F0DF1ED
:102A900043088DF8431023D002202B23002F01DAA6
:102AA0007F422D234FF00A0C011EA0F1010000DC33
:102AB0004FB197FBFCF10CFB11720F4602F1300293
:102AC00008F8012DF0E7A8F101000370218809053D
:102AD00001D5452100E06521A0F1010800F8011CA5
:102AE00009980FA9A1EB080707F1070700B101201A
:102AF00000EB050101EBEA70A1693844A1EB00008D
:102B0000A0F10100A0612078C00602D42046FEF7A3
:102B1000B5FC099830B1D4E901219047206A00F151
:102B2000010020622078C00620D52046FEF7A6FCD2
:102B30001CE0002E04DBB34502DD01A8805D00E04F
:102B40003020D4E901219047206A761C401CBAF15C
:102B5000010A20620AD1FFF7C7FDC0680168405C26
:102B6000D4E901219047206A401C2062281EA5F16B
:102B70000105DEDC07E0D4E9012118F8010B9047DC
:102B8000206A401C2062381EA7F10107F3DC2046B2
:102B9000FEF78BFC022011B040E600002DE9F04F5B
:102BA00004460D46D21D22F0070089B0D0E90092FC
:102BB00048461746394609F09FFC0246F80F01D0F7
:102BC0002D2307E02068810701D52B2302E0202177
:102BD00001EAC0038DF82030D8B200B10120032AE9
:102BE000824601D0072A04DB2946204600F062FB1A
:102BF00041E12078800601D40D2500E0E569C7F3A6
:102C00000A560D2D4ADA00214FEA175B08464FF0AD
:102C10000000002F00F4400007DA00EB800000EB1A
:102C2000D0714FF4400000EA61008115012901DDF7
:102C30004FF0FF3100224FEA850CBCF1180F06D38C
:102C40001346ACF118004FF08052C24003E04FF43D
:102C5000801323FA0CF30CF10C0CBCF1200F04D3FD
:102C6000ACF1200C09FA0CF001E007FA0CF0002995
:102C70004FF0004801DD18B910E00FD140450DD3E9
:102C800019EB02095F4121B9404502D19F4329EA6E
:102C90000209BBEB175F01D006F101062088000591
:102CA00002D57C48784402E07A487844193808AA6A
:102CB000302302F80A30037C0AF10101002E0AF1E8
:102CC000020A53546A4602DC4FF0300101E04FF033
:102CD00031014FF001088DF8001002D0A6F2FF3646
:102CE00003E059EA470100D06B4E002D02DC217849
:102CF000090704D54FF002082E218DF80110C446B3
:102D000000210BE0C7F303433F01C35C491C6D1E68
:102D100002F80830052908F1010801DA002DF1DC7C
:102D200000210CE000EB1973491C1B786D1E08296B
:102D300002F8083008F101084FEA091901DA002DFC
:102D4000F0DC2178890602D514E0A8F10108E045FD
:102D500005DD02EB080111F8011C3029F5D0B8F1AE
:102D6000000F07DD02EB080111F8011C2E2901D12B
:102D7000A8F10108002D05DD3E2102F808106D1EA6
:102D800008F10108407C002E02F8080008F1010853
:102D900006DA2D2002F80800764208F1010804E066
:102DA0002B2002F8080008F101080A214FF47A7379
:102DB0009E420ADB96FBF3F000F1300703FB10663E
:102DC00002F8087008F1010801E0642E0BDB6427AB
:102DD00096FBF7F000F1300307FB106602F80830AD
:102DE00008F1010801E00A2E07DB96FBF1F000F183
:102DF000300002F8080008F1010896FBF1F001FB31
:102E0000106000F1300002F80800A16908F1010823
:102E100008EB050202EB0A00A1EB0000A06120789C
:102E2000C00602D42046FEF729FB216A08AE01EB5A
:102E30000A00206204E0D4E9012116F8010B904752
:102E4000BAF1010AF7D22078C00602D52046FEF773
:102E500015FB6E4609E016F8010B3E280FD0D4E9A9
:102E600001219047206A401C2062B8F10108F2D28B
:102E70002046FEF71AFB09B00220BDE8F08F206A59
:102E80002844206203E0D4E90121302090476D1EE0
:102E9000EBD3F8E7FB95050002FCFFFF10B5436993
:102EA00013B1AFF3008001E0FFF702FA012010BD7B
:102EB000128800F1240182840022C2840122EDE7FD
:102EC00011684FF0FF32E9E72DE9F34F4FF0000AA8
:102ED0000C4656468DB001200C9001F10C000B9071
:102EE00062690B980121904705002DD0252D2CD02B
:102EF000216A8847C0B162690B9801219047216A15
:102F000088470028F7D16269411E0B98904700E07E
:102F1000761CA1690D988847216A88470028F7D157
:102F2000E1690D988847DBE7A1690D988847A842B9
:102F3000074601D1761CD3E7E1690D9888477F1CCD
:102F400002D1BAF1000F6FD06AE162690B980027D5
:102F50003D46394690472A2804D162690B980121E1
:102F600090470125DFF8CC8262690B9801219047D8
:102F7000A0F130010A290AD24745E5DC07EB8701B9
:102F800000EB4107303FDFD445F01005ECE7E906E0
:102F900001D46FF000476C280AD04C2814D0682860
:102FA00015D06A280DD074281CD07A281AD01DE0BC
:102FB00062690B98012190476C2802D045F0040506
:102FC00014E045F002050DE045F020050AE06269D5
:102FD0000B9801219047682802D045F0080505E0CC
:102FE00045F4006562690B9801219047C4E90157D7
:102FF00065283DD019DC582879D00CDC452837D01D
:1030000004DC252826D041289ED131E046282FD047
:10301000472899D12CE05B287FD0612828D06328ED
:103020007BD0642890D159E0F5E06F2847D008DCC8
:1030300066281DD067281BD0692821D06E2816D19C
:1030400027E0702844D0732867D0752846D07828A8
:103050000DD14CE0A1690D988847252805463FF41D
:1030600069AFE1690D9888476D1C3FF46AAFD7E0FE
:103070000D9923466A466FF00100AFF30080C4E06B
:1030800045F0400023464FF000026060A80735D4A9
:103090003DE0206800F1040121600068290501D5A8
:1030A00006701DE7290701D5068019E7A90704D591
:1030B0004FEAE671C0E9006112E7066010E745F0EB
:1030C000400023464FF008026060A80716D41EE0B7
:1030D00040F60E0125EA0100606016E045F0400070
:1030E00023464FF00A026060A80707D40FE045F0BE
:1030F00040006060A80708D5234610220D996FF0A4
:103100000100AFF3008080E007E0102223460D9914
:103110006FF00100FEF772FB77E04FF000096328C3
:103120004F46C8464B46CB4602D05B2806D038E017
:10313000E80601D40120A060012732E06269D4F8DA
:103140000CB00B98012190475E2807D14FF0010980
:1031500049466269D4F80CB00B989047216939B997
:1031600000210B4603AA42F82130491C0829FADB4A
:10317000D8B3216949B308F1010862690B980121AC
:1031800090475D28F4D1B9F1000F09D0002003A9C0
:1031900051F82020D24341F82020401C0828F7DBBA
:1031A00003AB2069002820794FEA40701ED05B46AF
:1031B0002246CDF80080CDE901970D9900286FF0E7
:1031C000010020DAAFF300801FE0C11700EBD162ED
:1031D00003A9531122F01F0201EB8301821A0B682D
:1031E0000120904003430B60C7E719E00D99224688
:1031F00000286FF00100009702DAAFF3008004E0CE
:10320000AFF3008001E0AFF3008000280ADA401C31
:1032100006D10C9820B14FF0FF300FB0BDE8F08F11
:103220005046FAE7E90701D10AF1010A06440020F5
:103230000C9055E6CCCCCC0C70B516460C46054629
:10324000FEF75EFF036893F80101012806D0FF2C0A
:103250000FD8185D68B101202C7070BDD3F807013C
:103260003246214603442846BDE8704003F2071366
:1032700018474FF0FF3070BD30B503461D781DB1C3
:103280000A4603E0AC4201D1181A30BD12F8014BD6
:10329000002CF7D15B1CF1E730B503461D783DB13A
:1032A0000A4612F8014B1CB1AC42FAD15B1CF5E79F
:1032B000181A30BD2DE9F0411F4604460326016867
:1032C000072A01F4006004DB08B116A505E016A585
:1032D00003E008B115A500E015A521F0100020605D
:1032E000A069C01EA0610FB1401EA0612046FEF77C
:1032F000C5F84FB1D4E9012138469047206A401CF7
:103300002062C01C206206E0206AFAE7D4E90121AD
:1033100015F8010B9047761EF8D22046FEF7C5F847
:10332000BDE8F0814E414E006E616E00494E460090
:10333000696E66002DE9F047814616468AB0354829
:103340007844D0E9002380680092CDE9013031480B
:1033500078440C38D0E90223006903924FF0370219
:10336000CDE9043041F69B30014491FBF2F0A0F12D
:10337000800502FB10141B3C02D56442012000E0D2
:103380000020DFF890A080460027FA44AAF1C60A80
:103390000DE0E00709D03246684607EB47010AEB2B
:1033A000810100F0C4FA8DE8070064107F1C002C36
:1033B000EFD1184F7F44B43F17E0E80713D007EB75
:1033C00004100DF1180A90E80E00AAE80E00C0687B
:1033D000F04201D198190890324606A903A800F0DE
:1033E000A6FA03AB07C36D10641C002DE5D132466D
:1033F0006946B8F1000F03A802D000F084FA01E09A
:1034000000F095FAC9E90001C9F808200AB0BDE842
:10341000F0870000F08F05000446AFF300802046DF
:10342000FDF7C0FB5FEA400C08BF91F0000F4FEAC8
:103430008C234FEAC12243EA51514FEA1C5018BF76
:1034400000F5F0404FEA300018BF41F000415FEA5C
:103450006C5C00F02980BCF1FF3F08BF40F0804069
:103460007047130C06BF12044FF0100C4FF0000C05
:10347000130E04BF12020CF1080C130F04BF12014B
:103480000CF1040C930F04BF92000CF1020CD30F4B
:1034900004BF52000CF1010C11464FF00002A0F1E4
:1034A0001F00A0EB0C00704711F0004F08BF7047E1
:1034B00031F000413FF4D5AF0B0C06BF09044FF0CB
:1034C000100C4FF0000C0B0E04BF09020CF1080C9D
:1034D0000B0F04BF09010CF1040C8B0F04BF890012
:1034E0000CF1020CCB0F04BF49000CF1010CCCF124
:1034F0002003A0EB0C0022FA03F302FA0CF241EADB
:10350000030100F10100704720F07F4C80EA0300C6
:1035100023F07F47ACEB070303F57C5300F000403A
:1035200003F1FF032DE980494FEA154B09B44FEA37
:10353000144325EA0B4E24EA03480FF2042606EB57
:10354000132749083E785FEA320203FB0667C7F596
:10355000000707FB06F64FEA54374FEAD64606F156
:10356000020607FB066CCCF1005C4FEA1C472CEA14
:10357000074C07FB06F40CFB06F504EB15464FEA77
:10358000961634BF00204FF000404FEAD13706FBBB
:1035900007FC4FEA1C4C0CFB0BF7D21B03FB0CF790
:1035A00061EB07010CFB0EF7B0EB074072EB174223
:1035B0000CFB08F734BFA2EB0742B2EB074261EB0A
:1035C00017414FEA0C444FEA910706FB07FC4FEA0C
:1035D0001C4C0CFB0BF7B0EBC74072EB573203FBF4
:1035E0000CF734BFA2EBC742B2EBC74261EB5731D5
:1035F0000CFB0EF7B0EBC70072EB57720CFB08F731
:1036000034BFA2EBC702B2EBC70261EB5771039F55
:103610004FEA816141EA921104EBCC044FEAD137C1
:103620004FEA826206FB07FC42EA90124FEA806092
:103630004FEA1C4C0CFB0BF7D21B03FB0CF761EBA6
:1036400007010CFB0EF7B0EB074072EB17420CFBC7
:1036500008F734BFA2EB0742B2EB074261EB174118
:103660004FEA8C554FEA910704EB9C2406FB07FCBC
:103670004FEA1C4C0CFB0BF7B0EBC74072EB573218
:1036800003FB0CF734BFA2EBC742B2EBC74261EBBE
:1036900057310CFB0EF7B0EBC70072EB57720CFB07
:1036A00008F734BFA2EBC702B2EBC70261EB577158
:1036B00015EB4C254FEA816141EA92114FEA826293
:1036C0004FEAD13742EA901206FB07FC44F10004AE
:1036D0004FEA80604FEA1C4C0CFB0BF7D21B03FB3C
:1036E0000CF761EB07010CFB0EF7B0EB074072EB38
:1036F00017420CFB08F734BFA2EB0742B2EB0742BC
:1037000061EB174115EB1C154FEA813141EA9241FB
:103710004FEA823242EA90424FEA80304FEA0C761A
:1037200044F1000448EA03434EEA0B484FF0000E10
:10373000B2EB080C71EB030724BF624639464EEB2F
:103740000E0E4FF0000B0018524149414BEB0B0B92
:10375000B2EB080C71EB03077BF1000B24BF624650
:1037600039464EEB0E0E4FF0000B00185241494106
:103770004BEB0B0BB2EB080C71EB03077BF1000B6F
:1037800024BF624639464EEB0E0E51EA020718BFBF
:1037900046F0010616EB0E7655F1000254F10001D9
:1037A00003D5BDE88901BDE80088BDE88901BDE811
:1037B0000048B619524141EB0101A3F101037047E2
:1037C00080807F7E7D7C7B7A79787776767574735E
:1037D000727171706F6E6E6D6C6C6B6A6A6968681D
:1037E000676666656464636362616160605F5F5EB3
:1037F0005E5D5D5C5C5B5B5A5A5959585857575629
:10380000565555555454535352525251515050508D
:103810004F4F4F4E4E4D4D4D4C4C4C4B4B4B4A4ADF
:103820004A49494948484847474747464646454523
:10383000454444444443434343424242424141415C
:10384000002B26D4770021D01CB54FEA370703B4EC
:103850004FF010004FF010014FF000000FBCBDE81A
:1038600010400BF1010BBBF1010F08BF5FEA170716
:1038700022BF12F1010211F101014FF0004143F1A9
:10388000000300F0004043EA00007047F9D35708F6
:10389000DAE746EA064613F1400F4FEA16461FDD07
:1038A00013F1200FDFBF16430A46002120335B428D
:1038B000C8D0C3F1200746EA064602FA07F74FEAE6
:1038C000164646EA0706C3F1200722FA03F201FA78
:1038D00007F721FA03F14FF0000342EA0702B1E7CC
:1038E00046EA020646EA06464FEA164646EA010658
:1038F000BCBF46EA0646360C4FF000034FF000020C
:103900004FF000019EE72DE9C048934630B491E89E
:10391000380007C831EA400C48BF34EA430C03D5ED
:10392000FFF7F2FDFFF78CFFF0BCBDE800882DE942
:10393000C048934630B491E8380007C810F0804F73
:1039400008BF13F0804F03D100F005F8FFF778FFB0
:10395000F0BCBDE8008820F07F4780EA030023F038
:103960007F4C07EB0C03A3F57C5300F00040A3F160
:10397000FE0392F0000F00F0B38095F0000F00F00E
:1039800077802DE901494FEA11404FEA144621EAB8
:10399000004800FB06FC24EA064708FB06F607FB86
:1039A00008F800FB07F718EB06484CEB164C4FEAFB
:1039B000124B18EB07484FEA15464CEB174022EA2A
:1039C0000B4E0BFB06FC25EA06470EFB06F607FB33
:1039D0000EFE0BFB07F71EEB064E4CEB164C4FF0A2
:1039E00000061EEB074E4CEB174B18EB0B0840F193
:1039F000000018EB0E0B58EB000840F100008F1A86
:103A00004FF000013CBFC943661B14BFB5EB040C6B
:103A100000213CBFC943F61B4FEA17444EEA8E0E05
:103A200027EA04454FEA1C4704FB07622CEA074CCF
:103A300005FB07F70CFB05F604FB0CFC16EB074631
:103A400042EB174216EB0C4642EB1C421BEB060600
:103A500058EB0202414146EA9E0601D5BDE80189C4
:103A6000B619524141EB0101A3F10103BDE80189FF
:103A70004FEA14454FEA114724EA054621EA074C6C
:103A800005FB07F406FB07F70CFB06F105FB0CFC36
:103A900011EB074144EB17444FEA124711EB0C417D
:103AA00044EB1C4422EA074C05FB07F206FB07F730
:103AB0000CFB06F605FB0CFC16EB074642EB174227
:103AC00016EB0C4642EB1C456A1854F1000148BF46
:103AD0007047B619524141EB0101A3F10103704750
:103AE00095F0000F37D04FEA11424FEA144721EA10
:103AF000024624EA074C02FB07F106FB07F70CFB22
:103B000006F402FB0CFC14EB074441EB17414FEAAF
:103B1000154714EB0C4441EB1C4125EA074C02FB12
:103B200007F506FB07F70CFB06F602FB0CFC16EB91
:103B3000074645EB174516EB0C4645EB1C421219A0
:103B400051F1000148BF7047B619524141EB0101E4
:103B5000A3F1010370474FEA14454FEA114724EAE5
:103B6000054621EA074C05FB07F106FB07F70CFBAE
:103B700006F24FF0000605FB0CFC12EB074241EB8E
:103B8000174112EB0C4251EB1C4148BF7047921891
:103B900041EB0101A3F10103704700002DE9F04161
:103BA0001D4617000E464DD07C89C82C00D9C7246D
:103BB000C8212548FEF717F922462348796803F003
:103BC00012FB384633F003FE1F4804222044074608
:103BD000294603F008FB381D022206A903F003FB67
:103BE000C82322461849082021F064F80404240C54
:103BF00028D0224615A11448FDF740FF20B90D2C0E
:103C000002D1286842F018FA144890F900000F38E1
:103C1000032805D82146BDE8F0410B481DF09CBDA6
:103C20000F4F28682146786107480CF0D3FD002823
:103C300008D0FE60BDF81800B880BDE8F041024829
:103C400028F018BBBDE8F081FC370020736D61726D
:103C5000746C696E6B66696E640000003407002046
:103C60002006002070B50D46040010D0002D0ED0A7
:103C70000021606922F0F2F8A06848B10560A560F3
:103C8000A089401CA081606922F0E3F8204670BD45
:103C9000A5602560F4E7000070B50D46064603F008
:103CA000D9FE124C12A10320626802F0E1F86268AA
:103CB000CAB1F000B2FBF0F3591E00FB1323DB0086
:103CC000B3FBF0F0104C41EA00406060E800B2FB4A
:103CD000F0F300FB1322591ED200B2FBF0F00B4CA4
:103CE00041EA00406060002070BD00001004002028
:103CF000524334384D487A43616C69537973436C4D
:103D00006B3D25640A000000006001400050014046
:103D10007CB504460A4809F062FF0546694604205E
:103D20002BF0BAF8214668462AF070FD6946062055
:103D30002BF0B2F82946024809F069FF7CBD00006B
:103D4000840900201CB50A4809F049FF0446694669
:103D500004202BF0A1F868462AF078FD6946062079
:103D60002BF09AF82146024809F051FF1CBD0000D3
:103D700084090020034610B50020024605E000BF7C
:103D800013F8014B6040521CD2B28A42F8D310BDE6
:103D9000F0B504460020B4F5004F0DDAB1F5004F40
:103DA0000ADCB2F5004F07DC8D18B5F5004F03DCD7
:103DB000994201DB012B02DA4FF0FF3034E01B4D5A
:103DC0002D6864F30E05194E3560194D2D6864F3A6
:103DD0000E05174E35604D1E164E366865F30E06FD
:103DE000144D2E605D1E144E366865F30E06124D9E
:103DF0002E600125114E35606618114D2D6866F351
:103E00000E050F4E356066180E4D2D6866F30E05D3
:103E10000C4E3560551E0C4E366865F30E060A4D85
:103E20002E600125094E3560F0BD0000685001404C
:103E300054500140585001405C500140000C2A424F
:103E4000745001407C5001407850014000102A42DB
:103E50002DE9F04105460C4600271A2D71D2DFE806
:103E600005F0ED0D1C3A3FED464C515969715F6408
:103E7000767B82878E939A9ECFDEC1C67348006898
:103E800080B2461C71480068C0F3024000EBC606D1
:103E900000F0FEFFB0FBF6F7D3E000F0F9FFE10021
:103EA000B0FBF1F0401E6949096860F30F016748F3
:103EB000016000F0EDFFE100B0FBF1F201FB120048
:103EC000C000E100B0FBF1F16048006861F312400E
:103ED0005E490860B5E05E48006800F00307B0E0A6
:103EE0005B48006864F3010059490860A9E004F0E8
:103EF00001005849C1F86C02A3E004F001005649E2
:103F000008609EE004F001005249C1F87802C1F84F
:103F1000700296E004F001004F49091D086090E02E
:103F20004E48806900F01F078BE04C48806B00F022
:103F3000030786E001204749C1F87402C1F87C02FA
:103F40007FE07BE0012044490831086079E0444883
:103F50000068C0F30E0774E04148006864F30E0087
:103F60003F4908606DE03F480068C0F30E0768E015
:103F70003C48006864F30E003A49086061E03A4842
:103F80000068C0F30E075CE03748006864F30E0079
:103F90003549086055E001203449086051E0344853
:103FA0000068C0F30E0033490968C1F30E01401ADE
:103FB00031490968C1F30E012E4A1268C2F30E029C
:103FC000891A411A26480068C0F30E00401C0144BB
:103FD00023480068C0F30E00401C91FBF0F200FB88
:103FE00012172EE004F001002449886129E02048DE
:103FF00000682149096860F30E011F48016020E054
:1040000044B104F00300401E1D4908600120091F4F
:10401000086003E000201A49091F086011E044B15C
:1040200004F00300401E174908600120091F0860C2
:1040300003E000201349091F086002E04FF0FF373A
:1040400000BF00BF3846BDE8F081000004500140C9
:104050001C50014014002A4280062A4200500140B0
:10406000585001405C5001407850014000102A42F5
:1040700064500140545001406850014000002A4201
:10408000040A2A42040E2A422DE9F04104460D4654
:1040900016461F46B4F5167F0AD33448844207D823
:1040A000052D05DB082D03DC022E01DC022F03DDCC
:1040B0004FF0FF30BDE8F081681F2D49096860F3BB
:1040C00001012B4801602EB101202A498860701E31
:1040D000C86004E001202749886000208860781EBD
:1040E000244908610120486100F0D2FEE100B0FBE4
:1040F000F1F0401E2049096860F30F011E4801607D
:1041000000F0C6FEE100B0FBF1F201FB1200C000BE
:10411000E100B0FBF1F11848006861F31240164964
:1041200008601648006840F0080014490860012043
:104130001049886104200121814042094FF0E023A9
:1041400003EB8202C2F8001100BF00200C49C1F845
:1041500070020C4908600A49C1F878020120C1F8D0
:104160006C020849091F08600020A3E7C0C62D00A3
:104170000050014000002A420450014000900140DC
:1041800014002A4284062A422DE9F74F82B0804665
:104190000F46002400F07CFEC60000210120FFF73E
:1041A00057FEB6FBF0F000900DF02EFB049900EBEB
:1041B000010A00BF009801908AE064480068C0F3DB
:1041C0000E0563480068C0F30E0962480068C0F33A
:1041D0000E00A9EB00005F490968C1F30E01691ADE
:1041E000411A5D480068C0F30E00401C01445A4863
:1041F0000068C0F30E00401C91FBF0F200FB1216A9
:10420000002E62DD381BB04201D9304600E0381B79
:104210000646A9EB050000280CDC4E480068C0F3F8
:104220000E004D490968C1F30E010844401C401BB3
:10423000B04207DB08EB0400324648492944FDF749
:1042400011FD23E043480068C0F30E0042490968AD
:10425000C1F30E010844401CA0EB050B08EB040061
:104260005A463E492944FDF7FDFCA6EB0B02394BAB
:104270001B68C3F30E03DFF8E4C003EB0C0104EB8F
:104280000B0303EB0800FDF7EDFC00BFA819314953
:104290000968C1F30E01411A2F480068C0F30E00EF
:1042A000401C91FBF0F200FB12102A490968C1F38F
:1042B0000E01084485B22548006865F30E002349C5
:1042C000086034440098019002E00198401E01907B
:1042D000019810B1BC42FFF470AFA74200D128E0B2
:1042E0000DF092FAB0EB0A001AD50DF08DFAAAEB98
:1042F0000000049001210820FFF7AAFD41F6FF709D
:10430000FFF706FD00BFEFF3058028B9002108463E
:10431000049A2AF0C9FF00E000BFFFF713FD00E098
:1043200000BFBC4205D20DF06FFAB0EB0A003FF5BA
:1043300041AF00BF01210820FFF78AFD24B94FF0EB
:10434000FF3005B0BDE8F08F2046FAE76850014025
:1043500064500140545001405850014000800120F9
:104360002DE9F0470546894600248E4880690028DB
:104370007BD08D480068C0F30E00B9FBF0F669E011
:104380008A48806B00B965E089480068C0F30E0A6E
:1043900088480068C0F30E0787480068C0F30E0025
:1043A00050450FD1804B1B68C3F30E022919824B75
:1043B0001B68C3F30E03DFF804C203EB0C00FDF728
:1043C00051FC24E07C480068C0F30E00764909687F
:1043D000C1F30E010844401CA0EB0A08291942460B
:1043E00076485044FDF73EFC6F4B1B68C3F30E0349
:1043F000A3EB080204EB080359196F4B1B68C3F3C6
:104400000E03DFF8B8C103EB0C00FDF72BFC664888
:104410000068C0F30E00384467490968C1F30E0113
:10442000411A61480068C0F30E00401C91FBF0F295
:1044300000FB12116048006801445E48006861F3A7
:104440000E005C49086058480068C0F30E00044440
:10445000761E00BF002E93D153480068C0F30E00B3
:10446000B9FBF0F100FB119675E077E05048006869
:10447000C0F30E0A4F480068C0F30E074A480068B0
:10448000C0F30E004C490968C1F30E01AAEB01010B
:10449000084449490968C1F30E01791A411A424892
:1044A0000068C0F30E00401C91FBF0F200FB1218F4
:1044B000B04500D24FE040480068C0F30E003A49D2
:1044C0000968C1F30E010844401CB919884206D39B
:1044D0002919324639483844FDF7C4FB20E03648F4
:1044E0000068C0F30E0030490968C1F30E010844AA
:1044F000401CA0EB07082919424630483844FDF714
:10450000B1FBA6EB080204EB080359192A4B1B6800
:10451000C3F30E03DFF8A4C003EB0C00FDF7A2FB0E
:10452000B81925490968C1F30E01411A1E480068EF
:10453000C0F30E00401CB1FBF0F200FB12111E484C
:10454000006801441B48006861F30E0019490860C7
:104550003444002600BF002E88D11BE004E0204632
:10456000641C285C164908631648006808B94C4565
:10457000F5D30120144908600AE004E02046641CD9
:10458000285C0F4908630F48006808B94C45F5D30B
:104590004C45F2D301200C49083108602046BDE8A3
:1045A000F087000000002A427850014084102A421F
:1045B000845001407C500140745001400080012033
:1045C0000050014004082A4280062A422DE9F04F9B
:1045D000002604464FF40F2700F1320B8DB035460C
:1045E00033462822214638461BF04AFA2C4F4FF416
:1045F000007ADFF8B08035E005F0BEFD216A05F5F0
:104600000070814202D2A1EB050900E0D14651467B
:104610005846FDF7E8FB00234A46594638461BF04A
:104620002FFA3246494658461BF096FB064603468B
:104630001DA16846626AFCF7EFFED8F8000090F80A
:104640008402012809D16846FDF796FA02464FF424
:104650007A736946092022F001F84D444F44B5F5BC
:10466000002F04DC206AA84201D90028C4D1D8F860
:10467000000090F88402012806D14FF47A730222D8
:1046800010A1092021F0EAFF606AB04202D1206A3D
:10469000002801D14FF0FF300DB0BDE8F08F0000D1
:1046A00028F008009C0400202020435243203A5B5D
:1046B00025645D2C2043616C633A205B25645D0DAD
:1046C000000000000A0D00002DE9F74F00254FF40F
:1046D000801A934604465646A8462F464FEA0509D7
:1046E00005F04AFD00233822214630461BF0C8F968
:1046F000002819DB32A1201DFDF7EAFB20B134A10F
:10470000201DFDF7E5FB38B90198616A4FF00108FB
:104710000160A16ACBF80010A06A3836074420680F
:104720006D1C08B1642DDBDBC5EBC50007EBC006D3
:10473000B8F1010F03D116B1B6F5C22F02D900208E
:10474000BDE8FE8F574600254FF4007A1BE000BFFE
:1047500005F012FD05F50070B04202D9701B8046CD
:1047600001E05046D04602460023214638461BF061
:1047700087F9002809DB4A46414620461BF0ECFA3F
:10478000814645444744B542E2D3002308222146EE
:1047900038461BF075F90220015949450BD12078A4
:1047A000AA2808D16078882805D1A079AA2802D142
:1047B000E079882802D04FF0FF30C1E70120BFE741
:1047C0002F696E6465785F636E2E68746D6C00008F
:1047D0002F696E6465785F656E2E68746D6C00007D
:1047E0002DE9F04700254FF40F2A04465646A84607
:1047F0002F46A94605F0C0FC00233822214630464A
:104800001BF03EF9002813DB2FA1201DFDF760FBF4
:1048100020B131A1201DFDF75BFB08B94FF0010865
:10482000A06A3836074420686D1C08B1642DE1DBAE
:10483000C5EBC50007EBC006B8F1010F03D116B1F7
:10484000B6F5C22F02D90020BDE8F08757460025F3
:104850004FF4007A1BE000BF05F08EFC05F50070F8
:10486000B04202D9701B804601E05046D046024655
:104870000023214638461BF003F9002809DB4A468D
:10488000414620461BF068FA814645444744B542FC
:10489000E2D300230822214638461BF0F1F802201B
:1048A000015949450BD12078AA2808D16078882879
:1048B00005D1A079AA2802D1E079882802D04FF04A
:1048C000FF30C1E70120BFE72F696E6465785F6341
:1048D0006E2E68746D6C00002F696E6465785F657C
:1048E0006E2E68746D6C000010B504461649D1F840
:1048F0006C12D9B11449D1F8701259B113494968F1
:1049000031B112490968491C114AB2FBF1F01AE0B1
:104910000F4818E00D49496831B10C490968491C34
:104920000C4AB2FBF1F00EE00A480CE000F02EF861
:1049300044B90649496831B104490968491CB0FBCA
:10494000F1F000E0044810BD14003E4200F00140C8
:1049500000B4C40400D8B805006CDC0206498968BC
:10496000C0F30B021143044A91601146C96841EA41
:104970001031D1607047000000F001400249096920
:104980000143014A1161704700F001403EB501F05A
:10499000EDFF054601202349C1F8E802284601F051
:1049A000DDFF01202049C1F864034FF47A716846A5
:1049B00005F09EFA08E0684601F092FF20B11BA0C6
:1049C0002BF0DCFA00203EBD1748D0F8E4030028A5
:1049D000F1D01A48446A01201349C1F868034FF422
:1049E0007A71684605F084FA08E0684601F078FFBD
:1049F00020B10EA02BF0C2FA0020E4E70A48D0F85C
:104A0000E4030028F1D10849C1F868030C48406864
:104A100010F01F0F01D1A003D5E743F6095104FBA5
:104A200001F0D0E7180044421C003E4231532054AC
:104A3000696D656F7574210A0000000000F0014087
:104A4000182002402DE9F041194DA86826F0F2FE29
:104A500004460027A5F5E6761DE000BF14F0FF0F21
:104A600018D0E04310F0FF0F14D0286826F0E2FEC3
:104A7000A0420FD0204626F0DDFE014600202A6A23
:104A800012E000BF06EB40131B698B420BD116EB03
:104A900040100BD0641CE86826F0CCFEA042DDD2AA
:104AA0003846BDE8F081401C8242EBD80846F8E762
:104AB000045400202DE9F0410B4D0746002405F574
:104AC000E67607E005EB441006223946FCF7D6FFF0
:104AD00030B1641C306AA042F4D80020BDE8F081F7
:104AE00005EB4410FAE700003852002010B5A02171
:104AF0000D48FDF79AF916F0D7FE0C4C20680028F7
:104B000011D146F089F92060017A432241F0200159
:104B10000172074946F020F82068BDE810400022E5
:104B2000044946F089B910BD38520020B81500205C
:104B300074B4050009A0000010B5202007F05BFE4A
:104B400002480068401C0149086010BDE8040020CC
:104B500010B504480068401E0249086001D107F002
:104B60004AFE10BDE80400200149087070470000AB
:104B70006D09002010B50120FFF7B6FE10BD000042
:104B80002DE9F04105460C4600270E2D7DD2DFE8C9
:104B900005F07C07163D42494E54595F7077656AAF
:104BA0003D48006880B2461C3B480068C0F30240A4
:104BB00000EBC606FFF7DEFFB0FBF6F768E0B4F5E2
:104BC000966F02D33548844202D94FF0FF375FE039
:104BD000FFF7D0FFE100B0FBF1F0401E2E4909685D
:104BE00060F30F012C480160FFF7C4FFE100B0FB48
:104BF000F1F201FB1200C000E100B0FBF1F1264828
:104C0000006861F312402449086041E024480068CC
:104C100000F003073CE02248006864F301002049EB
:104C2000086035E001201F49C1F8E00330E004F0DE
:104C300001001D49C1F86C022AE004F001001B4983
:104C4000086025E004F001001749C1F870021FE078
:104C500004F001001549091D086019E01448806935
:104C600000F01F0714E01248806B00F003070FE00C
:104C70000BE001200C49C1F87402C1F87C0207E086
:104C800001200A490831086002E04FF0FF3700BFF9
:104C900000BF3846BDE8F08104600140C0C62D0069
:104CA0001C60014020002C4214002C4280062C4243
:104CB000006001402DE9F04104460E4615461F46AE
:104CC000701F2C49096860F301012A4801602DB169
:104CD000012029498860681EC86004E00120264937
:104CE000886000208860781E23490861012048619F
:104CF000FFF740FFE100B0FBF1F0401E1F490968DB
:104D000060F30F011D480160FFF734FFE100B0FBC5
:104D1000F1F201FB1200C000E100B0FBF1F1174815
:104D2000006861F31240154908601548006820F0DA
:104D3000030013490860012012490862C863124940
:104D4000C1F87002C1F87802002010490860032001
:104D50000121814042094FF0E02303EB8202C2F8B7
:104D6000001100BF01200849C1F86C020020BDE815
:104D7000F08100000060014000002C42046001400E
:104D80001C6001400060014014002C4284062C424B
:104D900001460548006810B14FF0FF3070470348E6
:104DA000006908700120F9E780042C42006001408E
:104DB00030B50246002011E0114B1B682BB90346A9
:104DC000401CD35C0F4C236308E00F4B1B6823B9D6
:104DD00001230E4C23600023236000BF8842EBD3E5
:104DE000074B1B1F1B684BB900BF074B1B68002BF1
:104DF000FBD10123054C23600023236030BD00005C
:104E000004082C420060014004072C4280062C421A
:104E100070B5044600200E4620701C4D60700121C4
:104E2000A1702A78E27021716071A1716878E071D7
:104E30000220207210216172A07268880421000A89
:104E4000E072A8782073032060733020A073E173B0
:104E50006868020E2274020C6274020AA274E07482
:104E6000217590206075A868FCF786FEA075A8687B
:104E7000FCF782FE024604F11700A968FCF7F2FE77
:104E8000A868FCF779FE1730306070BD341F002031
:104E900010B50120FFF728FD10BD00000348007881
:104EA00000F03F003F2800D100207047777F7C0052
:104EB00070B5044601F05AFD05460020144908600B
:104EC0001449C1F814029CB1012C10D0022C05D059
:104ED000032C14D103201049086011E000200E4972
:104EE00008604FF003000B49C1F80C0208E000BF56
:104EF0000020094908600749C1F80C0200E000BF22
:104F000000BF012002490860284601F027FD70BD5E
:104F1000002202400020024010220240FF2803D15C
:104F20000021074A116070470121054A11600549B7
:104F3000096860F38F31034A116000BFF3E7000096
:104F4000B4160442B4200040FF2803D10021074AD0
:104F5000116070470121054A11600549096860F335
:104F60005241034A116000BFF3E70000C01604423B
:104F7000B4200040FF2803D10021074A1160704788
:104F80000121054A11600549096860F30921034AB6
:104F9000116000BFF3E700009C160442B4200040FB
:104FA000FF2803D10021074A116070470121054AFB
:104FB00011600549096860F3CC21034A116000BF04
:104FC000F3E70000A8160442B420004070B5044680
:104FD0000D46FCF765F8054850F82400A84303493E
:104FE00041F82400FCF75AF870BD00000020004092
:104FF000B1F5004F75D02EDC802973D013DC082961
:1050000071D009DCB1F1004F6ED0012957D00229CF
:105010005ED0042969D16AE010297DD020296FD0A3
:105020004029F7D191E0B1F5006F6AD009DCB1F504
:10503000807F67D0B1F5007F77D0B1F5806FE9D17F
:10504000AEE0B1F5805F71D0B1F5005F6FD0B1F522
:10505000804FDFD1C8E0B1F5000F69D017DCB1F5A2
:10506000002F6FD009DCB1F5803F6CD0B1F5003F67
:105070006AD0B1F5802FCDD1DAE0B1F5801F76D0BE
:10508000B1F5001F74D0B1F5800FC3D1F4E0B1F1D8
:10509000006F6ED009DCB1F1807F6BD0B1F1007F81
:1050A00069D0B1F1806FB5D10AE1B1F1805F75D0FF
:1050B000B1F1005F73D0B1F1804FABD124E19D4AD3
:1050C00052F8202022F001029A4B43F820202EE1D2
:1050D000984A52F8202022F00202964B43F82020F2
:1050E00025E18AE03AE00EE017E11FE114E0914A81
:1050F00052F8202022F004028E4B43F8202016E1C3
:1051000017E056E038E08B4A52F8202022F00802DF
:10511000884B43F820200AE1864A52F8202022F0EA
:105120001002844B43F8202001E12EE04AE052E0D7
:10513000ABE0804A52F8202022F020027D4B43F859
:105140002020F4E07DE061E069E07A4A52F8202016
:1051500022F04002774B43F82020E8E0754A52F8ED
:10516000202022F08002734B43F82020DFE071E022
:1051700079E0AEE092E09AE06E4A52F8202022F404
:1051800080726C4B43F82020D1E06A4A52F820200C
:1051900022F40072674B43F82020C8E0A2E0AAE0A6
:1051A000644A52F8202022F48062624B43F82020A7
:1051B000BDE0604A52F8202022F400625D4B43F8C3
:1051C0002020B4E05B4A52F8202022F48052594B50
:1051D00043F82020ABE0574A52F8202022F4005236
:1051E000544B43F82020A2E0524A52F8202022F4E7
:1051F0008042504B43F8202099E04E4A52F820203C
:1052000022F400424B4B43F8202090E0494A52F8E8
:10521000202022F48032474B43F8202087E0454A83
:1052200052F8202022F40032424B43F820207EE046
:10523000404A52F8202022F480223E4B43F820209E
:1052400075E03C4A52F8202022F40022394B43F802
:1052500020206CE0374A52F8202022F48012354B8F
:1052600043F8202063E0334A52F8202022F4001251
:10527000304B43F820205AE02E4A52F8202022F4E6
:1052800080022C4B43F8202051E02A4A52F820207B
:1052900022F40002274B43F8202048E0254A52F828
:1052A000202022F08072234B43F820203FE0214A47
:1052B00052F8202022F000721E4B43F8202036E0E6
:1052C0001C4A52F8202022F080621A4B43F820201A
:1052D0002DE0184A52F8202022F00062154B43F8C6
:1052E000202024E0134A52F8202022F08052114B53
:1052F00043F820201BE00F4A52F8202022F00052F1
:105300000C4B43F8202012E00A4A52F8202022F0E9
:105310008042084B43F8202009E0064A52F820203A
:1053200022F00042034B43F8202000E000BF00BF02
:105330007047000000200040FF2803D10021134ADD
:10534000116070470121114A116020B1012809D074
:10535000022817D10EE000210D4A11600B4A121DE0
:10536000116010E000210A4A11600121074A121D54
:10537000116008E00121064A11600021034A121D54
:10538000116000E000BF00BF00BFDAE78C160442E6
:105390005017044210B50446FF2C03D100201849D1
:1053A000086010BD01201649086024B1012C12D0FC
:1053B000022C20D117E00020124908601049091D75
:1053C0000860FFF775FD1048006820F002000F49E3
:1053D000C1F8340110E000200A49086001200849A2
:1053E000091D086008E00120064908600020044902
:1053F000091D086000E000BF00BF00BFD1E700004A
:105400009416044254170442340102400000024042
:105410000146024850F8210070470000002000407B
:1054200030B504460D46A11CC8B2294600F064F907
:1054300030BD30B504460D4629462046FFF7D8FD5D
:1054400030BD70B504460E461546012D05D1611CD0
:10545000C8B2314600F050F904E0611CC8B23146D0
:10546000FFF7C6FD3146204600F046F901211E2017
:1054700000F02AF970BD00B50246D11CC8B2FFF792
:10548000C7FF00BD08B50123164A174914201EF0B6
:105490008DFF28B120F03AFC024640F24F4013E065
:1054A0001248006890F89002002819D00E49012394
:1054B0000F4AC03117201EF079FF002810D020F0CD
:1054C00025FC024640F2574000900A4B0AA10820F2
:1054D00000F0CEFCBDE808400CA1082000F0C8BCDC
:1054E00008BD0000C9480200400000089C040020DC
:1054F000C1D50100797C05005B20256420657272AE
:105500006F722025732025645D0000000A000000F2
:1055100010B50446FF2C03D100206949086010BD76
:105520000120674908606748006864F315506549C1
:10553000086034B1012C2DD0022C5ED0032C7DD11B
:1055400086E004210846FFF741FD04210620FFF70D
:105550003DFD04210720FFF739FD10210420FFF74E
:1055600035FD10210620FFF731FD10210720FFF740
:105570002DFD08210420FFF729FD08210620FFF753
:1055800025FD08210720FFF721FD0821052000F057
:10559000A1F891E04FF400210420FFF717FD4FF42C
:1055A00000210620FFF712FD4FF400210720FFF72E
:1055B0000DFD4FF400110420FFF708FD4FF400111A
:1055C0000620FFF703FD4FF400110720FFF7FEFC54
:1055D0004FF480110420FFF7F9FC4FF480110620EE
:1055E000FFF7F4FC4FF480110720FFF7EFFC4FF4B6
:1055F0008011052000F06EF85EE020210E20FFF7FC
:10560000E5FC20211020FFF7E1FC20211120FFF70D
:10561000DDFC08210E20FFF7D9FC08211020FFF740
:10562000D5FC08211120FFF7D1FC10210E20FFF737
:10563000CDFC10210846FFF7C9FC00E03BE010213B
:105640001120FFF7C3FC10210F2000F043F833E0D6
:105650004FF480110E20FFF7B9FC4FF48011102099
:10566000FFF7B4FC4FF480111120FFF7AFFC4FF4AB
:1056700080010E20FFF7AAFC4FF480011020FFF7F5
:10568000A5FC4FF480011120FFF7A0FC4FF400119E
:105690000E20FFF79BFC4FF400111020FFF796FC43
:1056A0004FF400111120FFF791FC4FF400110F206F
:1056B00000F010F800E000BF00BF00BF2FE70000BF
:1056C000CC160442B4200040014A42F82010704732
:1056D0000020004070B504460D46FBF7E1FC05488C
:1056E00050F824002843034941F82400FBF7D6FC76
:1056F00070BD000000200040B1F5004F77D02EDCD7
:10570000802975D013DC082973D009DCB1F1004F72
:1057100070D0012957D002295FD004296BD16DE0E8
:10572000102969D0202968D04029F7D199E0B1F536
:10573000006F77D009DCB1F5807F74D0B1F5007FC0
:1057400072D0B1F5806FE9D1BAE0B1F5805F6CD06D
:10575000B1F5005F6AD0B1F5804FDFD1DCE0B1F583
:10576000000F6ED017DCB1F5002F6BD009DCB1F55E
:10577000803F68D0B1F5003F70D0B1F5802FCDD11A
:10578000F6E0B1F5801F6AD0B1F5001F68D0B1F521
:10579000800FC3D118E1B1F1006F76D009DCB1F10F
:1057A000807F73D0B1F1007F71D0B1F1806FB5D13E
:1057B00036E1B1F1805F6BD0B1F1005F69D0B1F13A
:1057C000804FABD158E1B94A52F8202022F00102B3
:1057D000521CB64B43F8202065E1B44A52F8202011
:1057E00022F00202921CB14B43F820205BE19EE0C4
:1057F00041E00DE04BE155E119E025E0AB4A52F8FC
:10580000202022F00402121DA84B43F820204AE178
:10581000A64A52F8202022F008020832A34B43F88F
:10582000202040E157E035E03FE05FE069E09F4A3B
:1058300052F8202022F0100210329C4B43F8202016
:1058400031E1CCE09FE07DE0984A52F8202022F040
:1058500020022032954B43F8202024E17DE09DE09A
:10586000A7E0924A52F8202022F0400240328F4BAB
:1058700043F8202017E18D4A52F8202022F08002C0
:1058800080328A4B43F820200DE1D4E0B2E0BCE046
:10589000DCE0E6E0854A52F8202022F4807202F52E
:1058A0008072824B43F82020FDE0804A52F820208D
:1058B00022F4007202F500727C4B43F82020F2E0E3
:1058C0007A4A52F8202022F4806202F58062774BF7
:1058D00043F82020E7E0754A52F8202022F40062C5
:1058E00002F50062714B43F82020DCE06F4A52F869
:1058F000202022F4805202F580526C4B43F8202085
:10590000D1E06A4A52F8202022F4005202F50052F7
:10591000664B43F82020C6E0644A52F8202022F467
:10592000804202F58042614B43F82020BBE05F4A91
:1059300052F8202022F4004202F500425B4B43F86B
:105940002020B0E0594A52F8202022F4803202F59B
:105950008032564B43F82020A5E0544A52F82020CC
:1059600022F4003202F50032504B43F820209AE036
:105970004E4A52F8202022F4802202F580224B4B1E
:1059800043F820208FE0494A52F8202022F40022D8
:1059900002F50022454B43F8202084E0434A52F8A8
:1059A000202022F4801202F58012404B43F8202080
:1059B00079E03E4A52F8202022F4001202F500124B
:1059C0003A4B43F820206EE0384A52F8202022F467
:1059D000800202F58002354B43F8202063E0334A11
:1059E00052F8202022F4000202F500022F4B43F867
:1059F000202058E02D4A52F8202022F0807202F137
:105A000080722A4B43F820204DE0284A52F820208B
:105A100022F0007202F10072244B43F8202042E091
:105A2000224A52F8202022F0806202F180621F4B4D
:105A300043F8202037E01D4A52F8202022F000626F
:105A400002F10062194B43F820202CE0174A52F86B
:105A5000202022F0805202F18052144B43F8202083
:105A600021E0124A52F8202022F0005202F10052A6
:105A70000E4B43F8202016E00C4A52F8202022F06A
:105A8000804202F18042094B43F820200BE0074A94
:105A900052F8202022F0004202F10042034B43F86A
:105AA000202000E000BF00BF704700000020004041
:105AB000FF2803D10021074A116070470121054AE0
:105AC00011600549096860F34201034A116000BF93
:105AD000F3E7000080160442B42000402DE9F04FA7
